:100000006DEF0AF06896000C046ED8CF05F0E0CFD3
:1000100006F00001E9CF0CF0EACF07F0E1CF08F0DD
:10002000E2CF09F0D9CF0AF0DACF0BF0F3CF12F01C
:10003000F4CF13F0FACF14F000C00EF001C00FF0AF
:1000400002C010F003C011F0A0AA2AEF00F0A1BA7C
:1000500087EF06F00EC000F00FC001F010C002F0F4
:1000600011C003F00CC0E9FF07C0EAFF078E08C00B
:10007000E1FF09C0E2FF0AC0D9FF0BC0DAFF12C0DE
:10008000F3FF13C0F4FF14C0FAFF045006C0E0FFF2
:1000900005C0D8FF1000F76AA60FF66E000EF72213
:1000A0000900F55012000003FFFFFFFFFFFFFFFFF5
:1000B000FFFFFFFFFFFF07AE03D0F2CF0DF0F29E70
:1000C000F76AD80FF66E000EF7220900F55007AE5A
:1000D00002D00DBEF28E12004000080000000000A9
:1000E0000000000000000000000000000000000010
:1000F0000000000000000000F76A080FF66E010E15
:10010000F7220900F55012000600FF0901A10119AC
:100110000129081580257F75089508810219012994
:1001200008750895089102C0F76A380FF66E010E3F
:10013000F7220900F55012000000F76A4A0FF66E28
:10014000010EF7220900F55012002000F76A5C0F3B
:10015000F66E010EF7220900F5501200090229007F
:10016000010100C03209040000020300000009215F
:10017000000100012220000705810308000A07058D
:10018000010308000A00F76A960FF66E010EF722C7
:100190000900F55012000100F76AA80FF66E010E73
:1001A000F7220900F55012001200F76ABA0FF66E36
:1001B000010EF7220900F550120012011001000093
:1001C000004061044C47000101020001F76ADC0FA6
:1001D000F66E010EF7220900F5501200040309041F
:1001E0000803430043005300140347004C0043003E
:1001F00044002000440065006D006F006D9269941A
:1002000068A402D06894FCD793EF06F0400E040176
:10021000016F040E036F100E026F880E006F046BE7
:10022000040E076F500E066F0001000C70A002D084
:10023000EDDF7090689A9CEF06F06A6A6892A2EF10
:1002400006F0569055BE5680559E5550100803E254
:10025000000E016E21D056A010D0036A5550F2CF87
:1002600057F0F29E18DF57BEF28EFF0802E1000E33
:1002700001D0010E016E10D00FD0036A5550F2CF9D
:1002800057F0F29E08DF57BEF28EFF0802E1000E23
:1002900001D0010E016E00D0000C036A5450700FA3
:1002A000E96E0F0E0320EA6EEF6A54C055F0C9DF05
:1002B000015218E05450080DF350566AE96E040ECE
:1002C0005624EA6EEF6A5450080DF350566A556E84
:1002D000040E5526000E562255C0E9FF040E562482
:1002E000EA6EEF6A000C010E536E53500F0805E3DF
:1002F00053C054F0D2DF532AF8D7000C496A495250
:100300000AE1036A4950240FE96E000E0320EA6EE9
:10031000EF6A492AF4D7186A010E196E176A000CA1
:100320006A6A686A9F0E6B6E3D0E696E6E6ADBDFED
:10033000E5DF160E706E68A602D064DEFCD76D98FD
:1003400065DF030E1F6EA8EF06F0698468986D8262
:10035000AEEF06F0689CB4EF06F04EC020F0000C43
:10036000FF0E206E000C4C6A235242E04C503F08B6
:100370003FE31A50FC0F2BE2040F02EF02F0036A76
:100380002250F2CF4EF0F29EE1DE4EBEF28E4D6E66
:100390001ED0036A2250F2CF4EF0F29EADDE4EBE6A
:1003A000F28E4D6E14D0036A2250F2CF4EF0F29EC0
:1003B0000DDF4EBEF28E4D6E0AD0036A2250F2CF90
:1003C0004EF0F29EF2DE4EBEF28E4D6E00D0222A2C
:1003D00023064C504C2A036A500F016E000E032274
:1003E00001C0E9FF040E0324EA6E4DC0EFFFBCD745
:1003F000235204E14C50400801E0176A4CC04EF013
:10040000ACDF000CE824F76AF7361F0FF66E040E17
:10041000F7220A00F550FA6E0800F550F96E7E03D7
:100420009203A603BA03226A1A6A04011351010A4D
:10043000000109E0030A0CE0010A0DE0220A22E0B3
:10044000030A3FE065D0120E236E030E1A6E62D0CF
:10045000290E236E5FD0020E1A6E036A0401125138
:100460001B0FE96E000E0320EA6EEFCF22F0036A45
:100470002250F2CF4CF0F29E0001A8DE4CBEF28E6C
:10048000236E48D0D89004011235036AF2CF4CF0A5
:10049000F29E000181DE0900F5CF03F04CBEF28E22
:1004A000226E223C01D00BD0036A2250F2CF4CF0D6
:1004B000F29E4CDE4CBEF28E236E2CD002D050DF6A
:1004C00035D0D89004011435036AF2CF4CF0F29E77
:1004D00000012ADE0900F5CF03F04CBEF28E226E39
:1004E000223C01D013D0010E1A6ED89004011435AD
:1004F000036AF2CF4CF0F29E00011FDE0900F5CF37
:1005000003F04CBEF28E236E05D002D029DF0ED050
:1005100027DF0CD00401175305E12350165D02E2DA
:1005200016C423F0010E176E00011DDF000C4B52A4
:1005300004E1040E1F6ED7DECFD0050E1F6E040E31
:100540004E6E900E4D6E010E4C6E4C500F08D8A0A2
:10055000C3D04CC054F0A1DE4F6A036A4C50F2CFB6
:1005600053F0F29E98DD53BEF28EFF0857E0040E62
:100570004F6ED8904C34036AF2CF53F0F29E9BDD5D
:100580000900F5CF03F053BEF28E506E03C051F058
:100590004C50080DF350546A536E010E5324016EF3
:1005A000000E5420036E01C0E9FF040E0324EA6E1E
:1005B00050C0EFFF4C50080DF350546A536E020EBA
:1005C0005324016E000E5420036E01C0E9FF040E97
:1005D0000324EA6E4EC0ECFFED524DC0EFFFD89001
:1005E0004C34036AF2CF53F0F29E65DD0900F5CF7B
:1005F00003F053BEF28E4D2603504E22880E526EEB
:1006000051B0528051B252824C50080DF350546A8E
:10061000E96E040E5424EA6E52C0EFFF036A4C5098
:10062000F2CF53F0F29E37DD53BEF28EFF0839E071
:100630004F824C50080DF350546A536E040E5326EB
:10064000000E5422020E5324016E000E5420036E3D
:1006500001C0E9FF040E0324EA6E4EC0ECFFED5228
:100660004DC0EFFFD8904C34036AF2CF53F0F29EA6
:1006700022DD0900F5CF03F053BEF28E4D26035064
:100680004E224C50080DF350546A536E040E5326FC
:10069000000E542253C0E9FF040E5424EA6E400EAB
:1006A000EF6E4F50060802E10E0E4F6E036A4C507B
:1006B000F2CF53F0F29EEFDC53BEF28E0108D8A4C5
:1006C0004F88036A4C50700FE96E0F0E0320EA6EDC
:1006D0004FC0EFFF4C2A39D7B9EF03F00401115195
:1006E000000A00010DE0010A14E0020A1EE0060AF9
:1006F00027E0030A2CE00E0A2CE0010A30E03DD08E
:1007000019C050F40401516B020E4E6E000125DE3B
:1007100036D00401122D06D0010E19164E6A0001C2
:100720001CDE02D000011CDE2AD00401122D05D0EF
:1007300019824E6A000111DE02D0000111DE1FD0C5
:10074000020E176E12C421F04E6A07DE18D06BDE5F
:1007500016D018C050F4010E4E6EFFDD10D004010B
:100760001251010808E312C418F012C44BF0000142
:10077000DED64E6AF2DD000102D0F2DD00D0D1EF0C
:1007800004F018C04BF004011151000A000107E009
:100790000A0A0DE0010A2DE00D0A3DE03ED00401F9
:1007A000506B516B020E4E6E0001D7DD38D04B52AC
:1007B0001EE0010E4B5C036AF2CF4CF0F29EE3DCCC
:1007C0004CBEF28E016E0401145DD8A002D000016F
:1007D0000ED0036A1451240FE96E000E0320EA6E56
:1007E000EFCF50F4010E4E6E0001B7DD01D0B8DD41
:1007F00016D04B520EE0036A04011451240FE96E27
:10080000000E0320EA6E12C4EFFF4E6A0001A5DD60
:1008100001D0A6DD04D007DE02D0A2DD00D0D1EFEA
:1008200004F04C904BBE4C804B9E4CA011D04B50D2
:10083000080DF3504E6A4D6E040E4D26000E4E22EA
:100840004DC0E9FF040E4E24EA6E880EEF6E09D00B
:100850004B50080DF3504E6AE96E040E4E24EA6EBA
:10086000EF6A93EF04F04C904BBE4C804B9E4CA033
:1008700011D04B50080DF3504E6A4D6E040E4D26AC
:10088000000E4E224DC0E9FF040E4E24EA6E840E87
:10089000EF6E0AD04B50080DF3504E6AE96E040E0D
:1008A0004E24EA6E840EEF6E99EF04F04C904BBE2E
:1008B0004C804B9E4CA011D04B50080DF3504F6A0A
:1008C0004E6E040E4E26000E4F224EC0E9FF040E5F
:1008D0004F24EA6EEFCF4DF00AD04B50080DF35085
:1008E0004F6AE96E040E4F24EA6EEFCF4DF04DAE25
:1008F00002D04DB402D0000E01D0010E016EA3EF64
:1009000004F014C455F09DDC015229E0040111519A
:10091000010A000105E0020A09E0030A0DE01DD00A
:1009200014C44BF07ED74E6A18DD19D014C44BF0B6
:100930009AD74E6A12DD13D00401506B516B14C468
:100940004BF00001B3D7015204E0010E0401506FD7
:100950000001020E4E6E01DD02D002DD00D0D1EFAB
:1009600004F00401115100D00001FADC00D0D1EFF5
:1009700004F0176A040110517F0B000A000107E020
:10098000010A07E0030A07E0230A07E008D0A6D619
:1009900008D0F7D606D0B5D704D0E3D702D0E0DC34
:1009A00000D0F6EF05F04B50080DF350516AE96E98
:1009B000040E5124EA6EEFCF4DF04C50020806E1D0
:1009C0004DAC02D04C6A02D0010E4C6E4C50030864
:1009D00013E1840E4D6E4B50080DF350516A506E6A
:1009E000040E5026000E512250C0E9FF040E51247F
:1009F000EA6E840EEF6E07D04C2C03D0C80E4D6EFD
:100A000002D0880E4D6ED8904B34036AF2CF50F06E
:100A1000F29E5BEC00F00900F5CF03F050BEF28EC1
:100A20004E6E03C04FF04B50080DF350516A506E9C
:100A3000010E5024016E000E5120036E01C0E9FF2B
:100A4000040E0324EA6E4EC0EFFF4FB04D804FB24C
:100A50004D824B50080DF350516AE96E040E51243B
:100A6000EA6E4DC0EFFF000C036A5050700FE96E44
:100A70000F0E0320EA6EEF5212E05050080DF350B3
:100A8000526A516E040E5126000E522251C0E9FFE7
:100A9000040E5224EA6EEFCF51F051AE02D0000E98
:100AA00001D0010E016E000C4BC050F0DDDF015291
:100AB00062E04B50080DF350516A506E040E502600
:100AC000000E5122010E5024016E000E5120036EC3
:100AD00001C0E9FF040E0324EA6E4CC0EFFF4E5044
:100AE000020817E14B50080DF350516A506E040E86
:100AF0005026000E512250C0E9FF040E5124EA6E28
:100B0000EFCF4FF04FAC02D04E6A02D0010E4E6EC6
:100B100013D04E50040810E14B50080DF350516AA9
:100B2000E96E040E5124EA6EEFCF4FF04FAC03D0C4
:100B3000010E4E6E01D04E6A4E2C03D0C80E4F6E81
:100B400002D0880E4F6E4DB04F804DB24F824B5049
:100B5000080DF350516A506E040E5026000E5122BB
:100B600050C0E9FF040E5124EA6E4FC0EFFF010EA2
:100B7000016E03D000D0000E016E000C4B5200E15C
:100B8000000C4CC06EFF4C5203E0040E1F6E02D0EE
:100B9000020E1F6ED1EF05F0186A176A21C04CF0E3
:100BA000F0D7DEEF05F04B5209E1172C03D0B3EC80
:100BB00001F004D01750020801E1EED7000C1E30FE
:100BC000496E493249321F0E49161E5242E1040154
:100BD00000513C0B4A6E430E00174A5034081EE188
:100BE0000451800B01E0046B0001C3D66D98203CDA
:100BF00005D04B6A030E4C6ED6DE0ED04B6A020E49
:100C00004C6ED1DE2050FE0807E04B6A4D6A20C0D2
:100C10004CF0040E4E6E48DF19D004014A5004080F
:100C200016E14B6A0001AADF4B6A020E4C6EBBDE76
:100C30002050FE080AE0203C01D007D04B6A4D6AE4
:100C400020C04CF0010E4E6E2FDF00D004015CD0AE
:100C500000011E50040814E1430E04010417FF0EA6
:100C6000206E4B6A00019FDF203C01D008D04B6A08
:100C70004D6A20C04CF0020E4E6E16DF00D043D0FD
:100C80001EB41BD04950080DF3504C6A016E040E7F
:100C90004C24036E4950080DF3504E6AE96E040E61
:100CA0004E24EA6EEF50430B03C0EAFF01C0E9FF98
:100CB000EF6E49C04BF062DF26D04950080DF3506B
:100CC0004C6A4B6E040E4B26000E4C224BC001F0BA
:100CD000040E4C24036E4950080DF3504E6A4D6EBD
:100CE000040E4D26000E4E224DC0E9FF040E4E2488
:100CF000EA6EEF50430B03C0EAFF4BC0E9FFEF6E13
:100D000049C04BF050DF04010001BEEF06F0A19A8C
:100D10001F5201E139D0685237E068A404D069A4B9
:100D200002D0FEEF00F06DA201D02ED068AA04D050
:100D300069AA02D016EF01F068A204D069A202D01D
:100D40001DEF01F068A004D069A002D090EF01F07F
:100D500068A804D069A802D0A5EF01F068AC04D05F
:100D600069AC02D0AAEF01F0486A68A608D069A66B
:100D700006D06CCF1EF002EC00F021D701D004D0D9
:100D80004850482A0308F1E22AEF00F0202573209A
:100D90002573205043483A205625732020003239CD
:100DA0002D4175672D31300030353A32393A3230C5
:100DB0000000342E3130310046573A20302E30308A
:100DC0002E3330300000000E956E956A41C08CFFC6
:100DD00096908D90000096928D9200D096928D8282
:100DE00096908D80000C929889883EC041F0EBDF90
:100DF000000C400E3E6EF7DF92988998300E416EDF
:100E0000E2DF870E416EDFDF070E416EDCDF1F0E73
:100E1000416ED9DF2F0E416ED6DF7F0E416ED3DFDC
:100E2000200E416ED0DF416ACEDFC5EF07F0440EE1
:100E30003E6ED9DF92988998416AC5DF416AC3DF67
:100E40007F0E416EC0DF416ABEDF020E416EBBDF26
:100E50007F0E416EB8DF416AB6DF416AB4DF416A96
:100E6000B2DF416AB0DF5A0E3E6EBDDF92988998BC
:100E7000416AA9DFC6EF07F05B0E3E6EB4DF9298C1
:100E80008998090E416E9FDFC7EF07F0382C04D018
:100E9000590E3E6EA8DF03D0580E3E6EA4DF929826
:100EA0008998140E416E8FDF000C5D0E3E6E9BDF45
:100EB0009298899838C041F086DF800E39243A6EC6
:100EC000416E81DFCEEF07F0460E3E6E8CDF9298CA
:100ED00089983F6A3C0E3FC003F0E96E3FC0EAFFCD
:100EE000EFCF40F040C041F06EDF3F6A3C0E3E6EF7
:100EF000010E3E24016E000E3F20036E01C0E9FF8B
:100F0000EA6EEFCF3EF03EC041F05DDF000C020E16
:100F10003D6E3C6AD9DF420E3E6E65DF929889983D
:100F2000020E3B6E3A6A3B5011080BE33950FF0D3D
:100F3000F3CF3CF03CC041F046DF3A2AD8B43B2A1C
:100F4000F2D7000C3D6A3C6ABFDF420E3E6E4BDFBB
:100F5000929889983B6A3A6A3B50010807E339C086
:100F600041F031DF3A2AD8B43B2AF6D7000C38C01A
:100F70003EF039DFD9EF07F0929A898A96908D80FA
:100F800096948D8496928D8234D751D775D7386ACE
:100F90007DDF040E386E060E396E87D7396AB7DFEB
:100FA000200E396ECFDF37C038F070DF4C0E386E50
:100FB000DED78DEF0AF040C001F03FC000F03F6681
:100FC000012A0900F5CFEEFF002EFBD7012EF9D73D
:100FD000F86A000C3A6A396A020E3D6E3C6A74DFA8
:100FE000420E3E6E00DF92988998020E386E376A84
:100FF000385009081EE33A50036E3950392AD8B4E4
:101000003A2A3B6E03C03CF0780E3C26F86A3CC09E
:10101000F7FF3BC0F6FFEA6A3D0EE96E406A010E3B
:101020003F6EC9DF3DC041F0CEDE372AD8B4382A42
:10103000DFD73A6A396A0A0E386E010E376E3850B9
:10104000120822E303E1375000081EE33A50036E12
:101050003950392AD8B43A2A3B6E03C03CF0700E9E
:101060003C26F86A3CC0F7FF3BC0F6FFEA6A3D0E3B
:10107000E96E406A010E3F6E9EDF3DC041F0A3DE87
:10108000372AD8B4382ADBD768EF08F0420E3E6E14
:10109000AADE929889983AC041F095DE000C0900CA
:1010A000F55204E0F5CF3AF0F1DFF9D7000C090072
:1010B000EACF39F0E9CF38F0F5CF3AF0E7DF39C0C1
:1010C000EAFF38C0E9FF372EF2D784EF08F082D765
:1010D000010E3D6EA00E3C6EF7DE200E3A6ED6DF9E
:1010E0009E0EF66E0D0EF76EDADF200E3A6ECEDF34
:1010F000A80EF66E0D0EF76ED2DF920EF66E0D0E86
:10110000F76E070E376ED3D7B20EF66E0D0EF76E72
:10111000C6DF200E3A6EBADF200E3A6EB7DF010E40
:101120003D6EE00E3C6ED0DEB80EF66E0D0EF76E24
:10113000B6DF8EEF0AF06D6A696A080E6F6E945022
:101140003009946E1F6A166AF2BE168EF29E7EEC0D
:1011500001F016BEF28EAEEF08F0EDD7D4EF08F036
:10116000166AF2BE168EF29E7EEC01F016BEF28E6C
:101170006D6A140E6F6E696A6D86010E1F6EC4EF84
:1011800008F06DB601D0ECD71F2C0BD06DBA09D08A
:10119000686A696AA08AC00EF212110E696E020EA8
:1011A0001F6ED5EF08F0D9D7ECD71F500208FCE12D
:1011B0008FEF0AF01850016E90EF0AF0166AF2BE37
:1011C000168EF29E37C050F04FDC16BEF28E0152E2
:1011D00045E03750080DF350406A3F6E040E3F263D
:1011E000000E4022020E3F24016E000E4020036ECE
:1011F00001C0E9FF040E0324EA6EECCF03F0ED52C8
:10120000EFCF3DF003C03EF03EC0EAFF3DC0E9FF36
:1012100039C0E2FF38C0E1FF3BC002F03AC001F044
:10122000015202E0022A02D0025206E0E6CFEEFFAF
:10123000012EFCD7022EFAD7166AF2BE168EF29E47
:1012400037C04BF03BC04DF03AC04CF03CC04EF0C4
:101250002BDC16BEF28E015003D000D0000E016EC2
:10126000A6EF0AF0036A3750700FE96E0F0E0320E5
:10127000EA6EEF520DE03750080DF350396A386EC0
:10128000E96E040E3924EA6EEFCF38F038AE02D0A2
:10129000000E01D0010E016EA9EF0AF0386603D0EE
:1012A000396602D007D0392A37C0EEFF382EFCD776
:1012B000392EFAD7B3EF0AF03C50080DF350476AC5
:1012C000466E020E4624016E000E4720036E01C0DA
:1012D000E9FF040E0324EA6EECCF03F0ED52EFCFEA
:1012E00041F003C042F03C50080DF350476A466E8F
:1012F000010E4624016E000E4720036E01C0E9FF77
:10130000040E0324EA6EEF50036A446E03C045F0F6
:101310003C50080DF350476AE96E040E4724EA6E0C
:10132000EFCF43F043B0458043B245824550405C27
:1013300008E303E13F50445C04E245C040F044C090
:101340003FF03EC0EAFF3DC0E9FF42C0E2FF41C0BE
:10135000E1FF40C002F03FC001F0015202E0022A6A
:1013600002D0025206E0E6CFEEFF012EFCD7022E9D
:10137000FAD73FC001F040C002F0CAEF09F037C011
:101380003CF039C03EF038C03DF03BC040F03AC0C0
:101390003FF092D702C03BF001C03AF0166AF2BEAD
:1013A000168EF29E37C04BF0020E4C6ED3EC04F05A
:1013B00016BEF28E3AC001F03BC002F0BCEF0AF05C
:1013C0003E6A3D6A3C50100806E13B503C02F35037
:1013D0003E6A3D6E06D03C50200DF3503B243D6EDE
:1013E0003E6A3DC001F03EC002F029EF0AF03750DE
:1013F000E96E38C0EAFFEF50FE083CE1010E3724E9
:10140000E96E000E3820EA6EEF50010A07E0030A89
:101410000AE0010A28E0040A29E02BD0256A200E00
:10142000396E90DD26D0256A020E3724E96E000E53
:101430003820EA6EEFCF39F0030E3724E96E000E44
:101440003820EA6EEFCF3AF039C03BF03AC03CF0BA
:10145000B7D702C03AF001C039F002C03DF001C078
:101460003CF032DD06D0030E256E03D0396A4FDD25
:1014700000D01CD02550030A01E018D038C003F07A
:1014800037C0E9FF38C0EAFFEF520FE038C003F081
:101490003750372AD8B4382AE96E03C0EAFFEFCFB5
:1014A00039F039C03AF0F2DDE9D700D0C0EF0AF0E8
:1014B000EA6A370EE96EEF500EE00F0E016E006A19
:1014C000002EFED7012EFBD78F0E006E002EFED70A
:1014D0000000EF2EF2D7C3EF0AF0F86AD09E078E15
:1014E000EA6AE96AB886E10EAF6E040EB06EA60E27
:1014F000AC6E900EAB6E1F6A236AC150C00B0F0911
:10150000C16E070EB46E1B6A040E1C6E0C0E1D6EAF
:10151000256A266A010E376E2FD5D9D544D64AD60C
:10152000015231E0262A2650F90810E2266A9380FB
:10153000276A81A0272A010E376E396A270E386E76
:101540003B6A080E3A6E020E3C6E38D6010E376EBC
:1015500089D6015215E0EA6A2F0EE96E376A396AB8
:10156000080E386E9BD6010E376E396A2F0E386E14
:101570003B6A080E3A6E03D7386A2F0E376E37D79C
:0A158000010E376E95D7CBD703009C
:107800000000000000000000000000000000000078
:107810000000000000000000000000000000000068
:107820000000000000000000000000000000000058
:107830000000000000000000000000000000000048
:107840000000000000000000000000000000000038
:107850000000000000000000000000000000000028
:107860000000000000000000000000000000000018
:107870000000000000000000000000000000000008
:1078800000000000000000000000000000000000F8
:1078900000000000000000000000000000000000E8
:1078A00000000000000000000000000000000000D8
:1078B00000000000000000000000000000000000C8
:1078C00000000000000000000000000000000000B8
:1078D00000000000000000000000000000000000A8
:1078E0000000000000000000000000000000000098
:1078F0000000000000000000000000000000000088
:107900000000000000000000000000000000000077
:107910000000000000000000000000000000000067
:107920000000000000000000000000000000000057
:107930000000000000000000000000000000000047
:107940000000000000000000000000000000000037
:107950000000000000000000000000000000000027
:107960000000000000000000000000000000000017
:107970000000000000000000000000000000000007
:107980000000001FFFFFFFFFFFFFFFFFFFFFFFFFE4
:10799000FFFFFFFFFFFFFFFFFFFFFFFF00000000F3
:1079A0000000003FFFFFFFFFFFFFFFFFFFFFFFFFA4
:1079B000FFFFFFFFFFFFFFFFFFFFFFFF8000000053
:1079C0000000003FFFFFFFFFFFFFFFFFFFFFFFFF84
:1079D000FFFFFFFFFFFFFFFFFFFFFFFF8000000033
:1079E000000000380000000000000000000000005F
:1079F0000000000000000000000000038000000004
:107A0000000000380000000000000000000000003E
:107A100000000000000000000000000380000000E3
:107A200000000038000600038E1D1F8000000F1CA0
:107A300000E9F000000000000000000380000000EA
:107A4000000000380006000104230840000011086F
:107A500001188800000000007FF8FC03800000008F
:107A60000000003800000001044108410000210826
:107A7000020884000000000FD49BFF038000000078
:107A800000000038000000010440084100004008E8
:107A9000040084000000000FD5AFFF8380000000C9
:107AA0000000003800000001044008810000400888
:107AB000040082000000000FD49F83C380000000F8
:107AC000000000386E0E01C104300F87C0784008F6
:107AD000040082000000000FD6AE01E38000000029
:107AE0000000003831020221040C084100844008E3
:107AF000040082000000000FC49800F38000000022
:107B00000000003820820421040208210102438879
:107B100004008200000000007FF800738000000075
:107B200000000038208204010401082101024108FC
:107B300004008200000000000000007380000000CC
:107B4000000000382082040104410821010241089C
:107B500004088400000000000000007380000000A2
:107B6000000000382082041104410821010221088C
:107B70002208840000000000000000738000000064
:107B80000000003831020220886208412084210868
:107B90002210880000000000000000738000000038
:107BA000000000382E0F81C0705C1F80C0781E1F3F
:107BB000C1E1F00000000000000000738000000040
:107BC000000000382000000000000000000000005D
:107BD00000000000000000000000007380000000B2
:107BE00000000038700000000000000000000000ED
:107BF0000000000000000000000000738000000092
:107C0000000000380000000000000000000000003C
:107C10000000000000000000000000738000000071
:107C2000000000380000000000000000000000001C
:107C30000000000000000000000000738000000051
:107C40000000001FFFFFFFFFFFFFFFFFFFFFFFFF21
:107C5000FFFFFFFFFFFFFFFFFFFFFFFF80000000B0
:107C60000000001FFFFFFFFFFFFFFFFFFFFFFFFF01
:107C7000FFFFFFFFFFFFFFFFFFFFFFFF8000000090
:107C80000000000FFFFFFFFFFFFFFFFFFFFFFFFFF1
:107C9000FFFFFFFFFFFFFFFFFFFFFFFFC000000030
:107CA00000000000000000000000000000000000D4
:107CB00003FFFFFFFFFFFFFFFFFFFFFFE0000000EC
:107CC00000000000000000000000000000000000B4
:107CD00001FFFFFFFFFFFFFFFFFFFFFFE0000000CE
:107CE0000000000000000000000000000000000094
:107CF00000FFFFFFFFFFFFFFFFFFFFFFE0000000AF
:107D00000000000000000000000000000000000073
:107D1000007800000000000000000070E00000009B
:107D20000000000000000000000000000000000053
:107D30000039FFFFFFFFFFF800000070E0000000C7
:107D40000000000000000000000000000000000033
:107D50000039FFFFFFFFFFF800000070E0000000A7
:107D60000000000000000000000000000000000013
:107D7000003900000000000800000070E000000072
:107D800000000000000000000000000000000000F3
:107D90000039FFFFFFFFFFF800000070E000000067
:107DA00000000000000000000000000000000000D3
:107DB0000039FFFFFFFFFFF8000000E0E0000000D7
:107DC00000000000000000000000000000000000B3
:107DD0000039800000000018000000E0E000000012
:107DE0000000000000000000000000000000000093
:107DF0000039800000000018000000E0E0000000F2
:107E00000000000000000000000000000000000072
:107E10000039800000000018FFE000E0E0000000F2
:107E20000000000000000000000000000000000052
:107E30000039800000000018E06000E0E000000071
:107E40000000000000000000000000000000000032
:107E50000039800000000018806000E0E0000000B1
:107E60000000000000000000000000000000000012
:107E70000039800000000018802001E0E0000000D0
:107E800000000000000000000000000000000000F2
:107E9000003980000000001887A001C0E000000049
:107EA00000000000000000000000000000000000D2
:107EB000003980000000001887A001C0E000000029
:107EC00000000000000000000000000000000000B2
:107ED0000039800000000018B7A001C0E0000000D9
:107EE0000000000000000000000000000000000092
:107EF0000039800000000018B02001C0E000000040
:107F00000000000000000000000000000000000071
:107F10000039800000000018B32001C0E00000001C
:107F20000000000000000000000000000000000051
:107F3000003980000000001887A001C0E0000000A8
:107F40000000000000000000000000000000000031
:107F50000039800000000018C32003C0E0000000CA
:107F60000000000000000000000000000000000011
:107F70000039800000000018C0E007C0E0000000E9
:107F800000000000000000000000000000000000F1
:107F90000039800000000018FFE00780E0000000CA
:107FA00000000000000000000000000000000000D1
:107FB000003980000000001860000700E0000000A9
:107FC00000000000000000000000000000000000B1
:107FD000003980000000001FFFFFFF00E0000000EC
:107FE0000000000000000000000000000000000091
:107FF000003980000000001FFFFFFFF0E0000000DC
:107000000000000000000000000000000000000080
:107010000039800000000018C00007F0E000000008
:107020000000000000000000000000000000000060
:10703000003980000000001880000730E0000000E8
:107040000000000000000000000000000000000040
:10705000003980000000001880000730E0000000C8
:107060000000000000000000000000000000000020
:10707000003980000000001FFFFFFFFCE00000005F
:107080000000000000000000000000000000000000
:10709000003980000000001980000734E000000083
:1070A00000000000000000000000000000000000E0
:1070B0000039FFFFFFFFFFF900000734E000000088
:1070C00000000000000000000000000000000000C0
:1070D0000039FFFFFFFFFFF900000004E00000009F
:1070E00000000000000000000000000000000000A0
:1070F0000039800000000009001FFFF4E0000000DC
:10710000000000000000000000000000000000007F
:107110000039FFFFFFFFFFF9001C4474E00000008E
:10712000000000000000000000000000000000005F
:107130000039FFFFFFFFFFFB001D6DF4E0000000C2
:10714000000000000000000000000000000000003F
:107150000038000000800002001C6DF4E000000018
:10716000000000000000000000000000000000001F
:107170000038000000FFFC3E001DEDF4E0000000C0
:1071800000000000000000000000000000000000FF
:1071900000380000609F8000001DC474E000000003
:1071A00000000000000000000000000000000000DF
:1071B00000380000FE8F0000001FFFF4E000000018
:1071C00000000000000000000000000000000000BF
:1071D00000380001FFFE000000000004E000000095
:1071E000000000000000000000000000000000009F
:1071F00000380001E7F8000000007804E00000001B
:10720000000000000000000000000000000000007E
:107210000038000381E0000000005804E000000096
:10722000000000000000000000000000000000005E
:10723000003800038080000000007804E0000000B7
:10724000000000000000000000000000000000003E
:1072500000380001C0FFFFFFFFFFDFFCE00000007F
:10726000000000000000000000000000000000001E
:1072700000380001C000000000007800E0000000BD
:10728000FFFFFFFFFFFFFFFC000000000000000009
:1072900000380001FF8000000000F000E000000066
:1072A000FFFFFFFFFFFFFFFE0000000000000000E7
:1072B00000380000FFFFFFFFFFFFE000E0000000DC
:1072C000FFF800000000003F000000000000000088
:1072D0000038000001FFFFFFFFFFC000E0000000DA
:1072E000800000000000001F80000000000000007F
:1072F00000380000007FFFFFFFFF0000E0000000FB
:10730000A08000800020081FC000000000000000D6
:10731000003800000000000000000000E000000055
:10732000910000000020101FE0000000000000009D
:10733000001FFFFFFFFFFFFFFFFFFFFFE000000058
:107340009118CC8C7027399FF000000000000000DD
:10735000001FFFFFFFFFFFFFFFFFFFFFE000000038
:10736000912490924824925FF800000000000000F1
:10737000000FFFFFFFFFFFFFFFFFFFFFC000000048
:107380008A3C98924824925FFC00000000000000B4
:1073900000000000000000000000000000000000ED
:1073A0008A2084924824925FFE00000000000000C2
:1073B00000000000000000000000000000000000CD
:1073C000841C988C4824919FFF000000000000005E
:1073D00000000000000000000000000000000000AD
:1073E000800000000000001FFF800000000000007F
:1073F000000000000000000000000000000000008D
:10740000C00000000000003FFFC0000000000000BE
:10741000000000000000000000000000000000006C
:10742000FFFFFFFFFFFFFFFFFFFFFFFFFFFFFFFF6C
:10743000FFFFFFFFFFFFFFFFFFFFFFFFFFFFFFFF5C
:10744000FFFFFFFFFFFFFFFFFFFFFFFFFFFFFFFF4C
:10745000FFFFFFFFFFFFFFFFFFFFFFFFFFFFFFFF3C
:10746000FFFFFFFFFFFFFFFFFFFFFFFFFFFFFFFF2C
:10747000FFFFFFFFFFFFFFFFFFFFFFFFFFFFFFFF1C
:10748000FFFFFFFFFFFFFFFFFFFFFFFFFFFFFFFF0C
:10749000FFFFFFFFFFFFFFFFFFFFFFFFFFFFFFFFFC
:1074A000FFFFFFFFFFFFFFFFFFFFFFFFFFFFFFFFEC
:1074B000FFFFFFFFFFFFFFFFFFFFFFFFFFFFFFFFDC
:1074C000800000000000000000000000000000003C
:1074D00000000000000000000000000000000001AB
:1074E000800000000000000000000000000000001C
:1074F000000000000000000000000000000000018B
:1075000080000000000000000000000000000000FB
:10751000000000000000000000000000000000016A
:1075200080000000000000000000000000000000DB
:10753000000000000000000000000000000000014A
:1075400080000000000000000000000000000000BB
:10755000000000000000000000000000000000012A
:10756000800000000000000000000000000000009B
:10757000000000000000000000000000000000010A
:10758000800000000000000000000000000000007B
:1075900000000000000000000000000000000001EA
:1075A000800000000000000000000000000000005B
:1075B00000000000000000000000000000000001CA
:1075C000800000000000000000000000000000003B
:1075D00000000000000000000000000000000001AA
:1075E000800000000000000000000000000000001B
:1075F000000000000000000000000000000000018A
:10760000FFFFFFFFFFFFFFFFFFFFFFFFFFFFFFFF8A
:10761000FFFFFFFFFFFFFFFFFFFFFFFFFFFFFFFF7A
:10762000FFFFFFFFFFFFFFFFFFFFFFFFFFFFFFFF6A
:10763000FFFFFFFFFFFFFFFFFFFFFFFFFFFFFFFF5A
:10764000FFFFFFFFFFFFFFFFFFFFFFFFFFFFFFFF4A
:10765000FFFFFFFFFFFFFFFFFFFFFFFFFFFFFFFF3A
:10766000FFFFFFFFFFFFFFFFFFFFFFFFFFFFFFFF2A
:10767000FFFFFFFFFFFFFFFFFFFFFFFFFFFFFFFF1A
:10768000FFFFFFFFFFFFFFFFFFFFFFFFFFFFFFFF0A
:10769000FFFFFFFFFFFFFFFFFFFFFFFFFFFFFFFFFA
:1076A000FFFFFFFFFFFFFFFFFFFFFFFFF0000000F6
:1076B00000000000000000000000000000000000CA
:1076C000FFFFFFFFFFFFFFFFFFFFFFFFF1C0000015
:1076D0000020038E08E0C600400043800000400008
:1076E0000000000000000000000000003200000068
:1076F000402000513910C640400042400000400088
:107700000000000000000000000000003400000045
:10771000002080512910A600400042400000400097
:1077200000000000000000000000000034073D17CA
:10773000473DE0910910AA4779C7438724F1C77EE6
:107740000000000000000000000000003408A4A4B5
:10775000492481910910AA4849CF4208A4924F4C6C
:107760000000000000000000000000003608A4A493
:1077700049248111091092484A484208A49248427B
:1077800000000000000000000000000033C7384483
:107790004F24E3CE08E092474BE742073C93C74EA5
:1077A0000000000000000000000000003000204049
:1077B00001000000000000000000000000000000C8
:1077C0000000000000000000000000003000204029
:1077D00001000000000000000000000000000000A8
:1077E00000000000000000000000000030002080C9
:1077F0000E0000000000000000000000000000007B
:020000040030CA
:0E00000024CE3E1E008781000FC00FE00F408F
:00000001FF
;PIC18F4550
;CRC=6D2B  CREATED="29-Aug-10 05:29"
