:1000000025EF1CF068961200046ED8CF05F0E0CF03
:1000100006F00001E9CF0CF0EACF07F0E1CF08F0DD
:10002000E2CF09F0D9CF0AF0DACF0BF0F3CF12F01C
:10003000F4CF13F0FACF14F0F5CF15F0F6CF16F099
:10004000F7CF17F000C00EF001C00FF002C010F0A3
:1000500003C011F0A0AA30EF00F0A1BA88EF09F0B8
:100060000EC000F00FC001F010C002F011C003F08C
:100070000CC0E9FF07C0EAFF078E08C0E1FF09C016
:10008000E2FF0AC0D9FF0BC0DAFF12C0F3FF13C0B2
:10009000F4FF14C0FAFF15C0F5FF16C0F6FF17C035
:1000A000F7FF045006C0E0FF05C0D8FF1000F76A54
:1000B000BE0FF66E000EF7220900F5501200000286
:1000C000FFFFFFFFFFFFFFFFFFFFFFFFFFFFF76ADD
:1000D000DE0FF66E000EF7220900F5501200400008
:1000E00040000000000000000000000000000000D0
:1000F0000000000000000000000000000000F76A9F
:100100000E0FF66E010EF7220900F55012000902DB
:10011000200001010080640904000002FFFFFF00CD
:100120000705810240000107050102400001F76A4E
:100130003E0FF66E010EF7220900F5501200010085
:10014000F76A500FF66E010EF7220900F550120003
:10015000120110010000004061045C4733000102FD
:100160000001F76A720FF66E010EF7220900F550D2
:10017000120004030904080343004300530014035E
:1001800047004C00430044002000440065006D001F
:100190006F00F76AA20FF66E010EF7220900F55004
:1001A000120000000100FF00320001000001020007
:1001B00000070300301004000000080002020900DC
:1001C00000000A0000000C0000000D0000000F00FD
:1001D00000001000000011000700120000001300D2
:1001E0000000FF00C8001000901611002702FF0059
:1001F000320012001A00FF0032001300001829001C
:100200002A00FF0032003000000031000000320000
:1002100000003500060236000808370007003800E5
:100220000102390000003C0000003D0000002000F9
:10023000000021000000500000005100EF005200BB
:10024000000053003F01600000A7610003006A0046
:100250000000900010009200000093000300950041
:1002600000119700000098000000070033017C0F88
:10027000F66E020EF7220900F55012000000000091
:10028000003E5B4F5B3E3E6B4F6B3E1C3E7C3E1C1C
:10029000183C7E3C181C577D571C1C5E7F5E1C0062
:1002A000183C1800FFE7C3E7FF0018241800FFE719
:1002B000DBE7FF30483A060E2629792926407F05DC
:1002C0000507407F05253F5A3CE73C5A7F3E1C1CF2
:1002D00008081C1C3E7F14227F22145F5F005F5FB2
:1002E00006097F017F006689956A6060606060949E
:1002F000A2FFA29408047E040810207E20100808A3
:100300002A1C08081C2A08081E101010100C1E0CAD
:100310001E0C30383E3830060E3E0E06000000003F
:100320000000005F00000007000700147F147F1426
:10033000242A7F2A1223130864623649562050006B
:1003400008070300001C2241000041221C002A1C57
:100350007F1C2A08083E0808008070300008080842
:100360000808000060600020100804023E51494562
:100370003E00427F400072494949462141494D3380
:100380001814127F1027454545393C4A49493141E7
:10039000211109073649494936464949291E0000B5
:1003A000140000004034000000081422411414140A
:1003B0001414004122140802015909063E415D59F6
:1003C0004E7C1211127C7F494949363E41414122FF
:1003D0007F4141413E7F494949417F090909013E29
:1003E000414151737F0808087F00417F4100204050
:1003F000413F017F081422417F404040407F021C62
:10040000027F7F0408107F3E4141413E7F09090978
:10041000063E4151215E7F09192946264949493244
:1004200003017F01033F4040403F1F2040201F3F0A
:100430004038403F6314081463030478040361598F
:10044000494D43007F4141410204081020004141D1
:10045000417F04020102044040404040000307087D
:100460000020545478407F28444438384444442879
:10047000384444287F385454541800087E09021820
:10048000A4A49C787F0804047800447D40002040A8
:10049000403D007F1028440000417F40007C0478EC
:1004A00004787C080404783844444438FC18242434
:1004B0001818242418FC7C080404084854545424B4
:1004C00004043F44243C4040207C1C2040201C3C31
:1004D0004030403C44281028444C9090907C446428
:1004E000544C4400083641000000770000004136BB
:1004F000080002010204023C2623263C1EA1A16141
:10050000123A4040207A3854545559215555794172
:100510002154547841215554784020545579400C49
:100520001E5272123955555559395454545939552A
:100530005454580000457C410002457D420001456D
:100540007C40F0292429F0F0282528F07C545545DA
:10055000002054547C547C0A097F4932494949326D
:100560003248484832324A4848303A4141217A3A82
:1005700042402078009DA0A07D39444444393D404C
:1005800040403D3C24FF2424487E4943662B2FFCF9
:100590002F2BFF0929F620C0887E090320545479A7
:1005A000410000447D413048484A32384040227A78
:1005B000007A0A0A727D0D19317D2629292F2826F5
:1005C0002929292630484D402038080808080808FD
:1005D0000808382F10C8ACBA2F102834FA00007B56
:1005E000000008142A142222142A1408AA00550014
:1005F000AAAA55AA55AA000000FF00101010FF007B
:10060000141414FF001010FF00FF1010F010F0146D
:100610001414FC001414F700FF0000FF00FF141472
:10062000F404FC141417101F10101F101F141414BE
:100630001F00101010F0000000001F101010101FFD
:1006400010101010F010000000FF1010101010100B
:10065000101010FF10000000FF140000FF00FF004A
:10066000001F10170000FC04F414141710171414C2
:10067000F404F40000FF00F714141414141414F715
:1006800000F7141414171410101F101F141414F46E
:10069000141010F010F000001F101F0000001F14B5
:1006A000000000FC140000F010F01010FF10FF1408
:1006B0001414FF141010101F00000000F010FFFFB2
:1006C000FFFFFFF0F0F0F0F0FFFFFF000000000080
:1006D000FFFF0F0F0F0F0F38444438447C2A2A3E87
:1006E000147E02020606027E027E026355494163C1
:1006F0003844443C04407E201E2006027E020299BB
:10070000A5E7A5991C2A492A1C4C7201724C304A53
:100710004D4D303048784830BC625A463D3E4949DC
:1007200049007E0101017E2A2A2A2A2A44445F4484
:100730004440514A444040444A51400000FF0103B4
:10074000E080FF000008086B6B083612362436067E
:100750000F090F06000018180000001010003040AC
:10076000FF0101001F01011E00191D1712003C3C72
:100770003C3C0000000000006D92699468A402D027
:100780006894FCD794EF09F0400E0401016F040E49
:10079000036F100E026F880E006F046B040E076F5C
:1007A000500E066F0001120070A002D0EDDF7090B5
:1007B000689A9DEF09F06A6A6892A3EF09F0010157
:1007C00010910FBF10810F9F0F51100803E2000E10
:1007D000016E1AD010A10DD0036A0F51000167DC21
:1007E000FF0802E1000E01D0010E016E01010CD0E4
:1007F0000BD0036A0F5100015ADCFF0802E1000E22
:1008000001D0010E016E01010001120001010F5122
:100810001103F3CF01F0F4CF00F01203F3500026E0
:1008200010511103F3500020026E00011200036A00
:1008300001010E51700FE96E0F0E0320EA6EEF6A90
:100840000EC10FF10001BBDF015228E00101106B66
:100850000EC10FF1126B080E116F0001D7DF0101FD
:1008600001C0E9FF040E0224EA6EEF6A106B0EC1AC
:100870000FF1126B080E116F0001C8DF02C010F1FA
:1008800001C00FF1040E01010F27000E10230FC14C
:10089000E9FF040E1025EA6EEF6A00011200010E56
:1008A00001010D6F0D510F0807E30DC10EF100019D
:1008B000BEDF01010D2BF6D700011200286A276A5E
:1008C0000101036B03530AE1036A0351290FE96E27
:1008D000000E0320EA6EEF6A032BF4D71B6A010EA9
:1008E0001C6E1A6A000112006A6A686A9F0E6B6EBB
:1008F0003D0E696E6E6AD3DFE1DF160E706E68A67C
:1009000003D002EC00F0FBD76D983EDF030E226EA1
:10091000A9EF09F0698468986D82AFEF09F0689CCF
:10092000B5EF09F008C123F012002368120001019D
:10093000066B2750281036E006513F0833E31D5060
:10094000000A000105E0020A0BE0010A11E017D0DD
:1009500026C003F025507FEC00F0E8CF07F10FD060
:1009600026C003F02550B1EC00F0E8CF07F107D026
:1009700026C003F02550A0EC00F0E8CF07F1252AAF
:10098000D8B4262A2750D8B42806270601010651D4
:10099000062B500FE96E040EEA6ED8B0EA2A07C1A2
:1009A000EFFFC7D72750281004E10651400801E0A7
:1009B0001A6A06C108F10001B5DF1200266A256A2D
:1009C0001D6A04011351010A000105E0030A09E050
:1009D000010A0BE022D0286A120E276E030E1D6E4C
:1009E0001ED0286A200E276E1AD0020E1D6E036AD2
:1009F000040112511E0FE96E000E0320EA6E266AF2
:100A0000EFCF25F026C003F025500001B1EC00F037
:100A1000036A276E03C028F002D087DF0FD00401DD
:100A2000175308E1285203E12750165D03E2286AB4
:100A300016C427F0010E1A6E000179DF71EF06F07F
:100A40000101055306E1040E226E000128DFEDD0FE
:100A50000101050E226E040E086F900E076F010E45
:100A6000066F06510F08D8A0E0D006C10EF10001B4
:100A7000DEDE0101096B036A0651000157EC00F04C
:100A8000FF0867E0040E0101096FD8900635036A7C
:100A9000000167EC00F00900F5CF03F001010A6FD7
:100AA00003C00BF1106B06C10FF1126B080E116F32
:100AB0000001ACDE01C00DF1010E01010124016E47
:100AC000000E0220036E01C0E9FF040E0324EA6E4B
:100AD0000AC1EFFF106B06C10FF1126B080E116F08
:100AE000000194DE01C00DF1020E01010124016E2E
:100AF000000E0220036E01C0E9FF040E0324EA6E1B
:100B000008C1ECFFED5207C1EFFFD8900635036A2C
:100B1000000167EC00F00900F5CF03F001010727A1
:100B200003500823880E0C6F0BB10C810BB30C83A0
:100B3000106B06C10FF1126B080E116F000166DE1B
:100B4000010101C0E9FF040E0224EA6E0CC1EFFFAF
:100B50000001036A01010651000157EC00F0FF0893
:100B600048E001010983106B06C10FF1126B080EFA
:100B7000116F00014BDE02C00EF101C00DF1040E39
:100B800001010D27000E0E23020E0D25016E000E31
:100B90000E21036E01C0E9FF040E0324EA6E08C1B2
:100BA000ECFFED5207C1EFFFD8900635036A000154
:100BB00067EC00F00900F5CF03F0010107270350AF
:100BC0000823106B06C10FF1126B080E116F0001A4
:100BD0001DDE02C00EF101C00DF1040E01010D2752
:100BE000000E0E230DC1E9FF040E0E25EA6E400E25
:100BF000EF6E01010951060802E10E0E096F036A4A
:100C00000651000157EC00F0010803E001010989D9
:100C10000001036A01010651700FE96E0F0E0320F7
:100C2000EA6E09C1EFFF062B1CD700016AEF06F040
:100C300004011151000A00010DE0010A15E0020A49
:100C400020E0060A2AE0030A31E00E0A31E0010A38
:100C500037E046D01CC050F40401516B020E010174
:100C6000086F00015FDE3DD00401122D07D0010E98
:100C70001C160101086B000155DE02D0000155DE93
:100C800030D00401122D06D01C820101086B000136
:100C900049DE02D0000149DE24D0020E1A6E12C4D1
:100CA00024F00101086B00013DDE1BD087D619D06E
:100CB0001BC050F4010E0101086F000133DE11D09A
:100CC0000401125101080AE312C41BF012C405F119
:100CD0000001B6D60101086B000124DE000101D03D
:100CE00024DEA9EF07F01BC005F104011151000A31
:100CF000000105E00A0A0CE0010A2CE040D00401E2
:100D0000506B516B020E0101086F00010BDE38D0F1
:100D1000010105531CE0010E055D036A000197EC1B
:100D200000F0016E0401145DD8A002D001010FD0C3
:100D3000036A1451290FE96E000E0320EA6EEFCF0B
:100D400050F4010E0101086F0001ECDD02D000013A
:100D5000ECDD16D0010105530FE0036A04011451C4
:100D6000290FE96E000E0320EA6E12C4EFFF0101A5
:100D7000086B0001D7DD02D00001D7DD01D0D5DD41
:100D8000A9EF07F00101069105BF0681059F06A1A5
:100D900019D0106B05C10FF1126B080E116F000115
:100DA00035DD02C008F101C007F1040E010107277B
:100DB000000E082307C1E9FF040E0825EA6E880E1D
:100DC000EF6E0FD0106B05C10FF1126B080E116F93
:100DD00000011CDD010101C0E9FF040E0224EA6EDE
:100DE000EF6A000174EF07F00101069105BF06816B
:100DF000059F06A119D0106B05C10FF1126B080EEB
:100E0000116F000103DD02C008F101C007F1040EFB
:100E100001010727000E082307C1E9FF040E08257A
:100E2000EA6E840EEF6E10D0106B05C10FF1126BDD
:100E3000080E116F0001EADC010101C0E9FF040E98
:100E40000224EA6E840EEF6E00017CEF07F00101D0
:100E5000069105BF0681059F06A119D0106B05C13B
:100E60000FF1126B080E116F0001D0DC02C009F106
:100E700001C008F1040E01010827000E092308C172
:100E8000E9FF040E0925EA6EEFCF07F110D0106BD1
:100E900005C10FF1126B080E116F0001B7DC0101E3
:100EA00001C0E9FF040E0224EA6EEFCF07F107AF9D
:100EB00002D007B502D0000E01D0010E016E000174
:100EC00088EF07F014C40FF17ADC01522DE0040121
:100ED0001151010A000105E0020A0BE0030A11E0CA
:100EE00022D014C405F14ED70101086B00011ADDB0
:100EF0001BD014C405F178D70101086B000112DD85
:100F000013D00401506B516B14C405F100019FD73D
:100F1000015203E0010E0401506F020E0101086F3F
:100F2000000100DD01D001DDA9EF07F01A6A04011C
:100F300010517F0B000A000105E0010A05E0030AD9
:100F400005E006D075D605D0CED603D0BBD701D0EC
:100F5000ECDC28EF09F00101106B05C10FF1126BF9
:100F6000080E116F000152DC010101C0E9FF040EFF
:100F70000224EA6EEFCF07F10651020806E107AD41
:100F800002D0066B02D0010E066F065103081BE16A
:100F9000840E076F106B05C10FF1126B080E116FF5
:100FA000000134DC02C00BF101C00AF1040E0101A2
:100FB0000A27000E0B230AC1E9FF040E0B25EA6E77
:100FC000840EEF6E07D0062D03D0C80E076F02D037
:100FD000880E076FD8900535036A000167EC00F0B2
:100FE0000900F5CF03F00101086F03C009F1106B90
:100FF00005C10FF1126B080E116F000107DC01C073
:101000000AF1010E01010124016E000E0220036E9F
:1010100001C0E9FF040E0324EA6E08C1EFFF09B125
:10102000078109B30783106B05C10FF1126B080E1E
:10103000116F000106EC04F0010101C0E9FF040E8C
:101040000224EA6E07C1EFFF00011200036A0101EA
:101050000A51700FE96E0F0E0320EA6EEF521BE08B
:10106000106B0AC10FF1126B080E116F000106EC34
:1010700004F002C00CF101C00BF1040E01010B27BA
:10108000000E0C230BC1E9FF040E0C25EA6EEFCF16
:101090000DF10DAF02D0000E01D0010E016E000166
:1010A000120005C10AF1D2DF0152D8B485D0010186
:1010B000106B05C10FF1126B080E116F000106ECE9
:1010C00004F002C00BF101C00AF1040E01010A276D
:1010D000000E0B23010E0A25016E000E0B21036E7C
:1010E00001C0E9FF040E0324EA6E06C1EFFF0851B8
:1010F000020820E1106B05C10FF1126B080E116F91
:10110000000106EC04F002C00BF101C00AF1040E6C
:1011100001010A27000E0B230AC1E9FF040E0B256B
:10112000EA6EEFCF09F109AD02D0086B02D0010ED3
:10113000086F1AD00851040817E1106B05C10FF1B0
:10114000126B080E116F000106EC04F0010101C0E2
:10115000E9FF040E0224EA6EEFCF09F109AD03D0D6
:10116000010E086F01D0086B082D03D0C80E096F5F
:1011700002D0880E096F07B1098107B30983106B8C
:1011800005C10FF1126B080E116F000106EC04F09F
:1011900002C00BF101C00AF1040E01010A27000E82
:1011A0000B230AC1E9FF040E0B25EA6E09C1EFFF0C
:1011B000010E016E04D00001000E016E010100015C
:1011C00012000101055300E10001120006C16EFF8B
:1011D0000101065303E0040E226E02D0020E226EBD
:1011E0000001F8EF08F01B6A1A6A24C006F1EED776
:1011F00009EF09F0010105530DE11A2C05D000019A
:1012000097EC04F006D001011A50020803E1000136
:10121000EAD701010001120021300101036F0333FD
:1012200003331F0E031721524EE1040100513C0B02
:101230000101046F430E0401001701010451340839
:1012400025E104010451800B01E0046B00016ED61E
:101250006D98233C07D00101056B030E066F00015A
:101260007ADE12D00101056B020E066F000173DEFB
:101270002350FE0809E00101056B076B23C006F14E
:10128000040E086F00010DDF1CD001010451040899
:1012900019E1056B000195DF0101056B020E066F78
:1012A000000159DE2350FE080CE0233C01D009D098
:1012B0000101056B076B23C006F1010E086F0001E9
:1012C000F0DE010122D02150040812E12368056BF1
:1012D000000190DF233C01D009D00101056B076BB1
:1012E00023C006F1020E086F0001DBDE0DD0010104
:1012F00021B406D003C105F1000163DF05D001016F
:1013000003C105F1000176DF01010001C1EF09F021
:10131000A19A225201E13ED068523CE068A404D078
:1013200069A402D0BCEF03F06DA201D033D068AA4B
:1013300004D069AA02D0D4EF03F068A204D069A255
:1013400002D0DBEF03F068A004D069A002D074EFF4
:1013500004F068A804D069A802D08AEF04F068AC51
:1013600004D069AC02D08FEF04F00101026B68A6D3
:101370000AD069A608D06CCF21F0000102EC00F081
:101380004BD702D0010105D001010251022B030805
:10139000EEE2000130EF00F025732025732050436A
:1013A000483A205625732020000032372D4D6179B0
:1013B0002D31330031363A30333A30360000342E96
:1013C000313430002573202573205043483A20568D
:1013D00025732044454255473A2046414C53450029
:1013E00032372D4D61792D31330031363A30333A71
:1013F00030360000342E313430004669726D77612A
:1014000072653A205625782E257800000A0D0A0DBF
:10141000746674696E666F0A0D57494454483A20E1
:10142000254C642048454947485420254C640A0D02
:1014300000005F77696474683A20254C75205F6806
:1014400065696768743A20254C750A0D000063755C
:1014500072736F725F783A20254C642063757273E3
:101460006F725F793A20254C640A0D0074657874B8
:10147000636F6C6F723A20254C75207465787462C6
:1014800067636F6C6F7220254C750A0D00001B5B43
:10149000324A1B5B4800706963555342746F474C76
:1014A0004344205625782E2578205049433A20255C
:1014B000730D0A0050494331384634353530000049
:1014C00043435320433A205625732020434F4D5029
:1014D000494C4520444154452F54494D453A202517
:1014E000732025732044454255473A2046414C53CA
:1014F000450D0A00342E3134300032372D4D6179DC
:101500002D31330031363A30333A3036000009009D
:10151000F5520DE0F6CFC0F0F7CFC1F0F5509EA820
:10152000FED7AD6EC0C0F6FFC1C0F7FFF0D7120006
:10153000EA6AC60EE96EEF500EE00F0E016E006A09
:10154000002EFED7012EFBD78F0E006E002EFED789
:101550000000EF2EF2D712000900F6CFC5F0F7CF4A
:10156000C6F0F5509EA8FED7AD6EC5C0F6FFC6C04A
:10157000F7FFC42FF1D71200C1BF10D00F0E006EBD
:10158000C03900160A0E005C03E2300E002602D0BD
:10159000C151002600509EA8FED7AD6E0F0EC01799
:1015A0000A0EC05D02E2300E02D0C19FC151C027B9
:1015B000C0519EA8FED7AD6E1200000E956EEAEFE8
:1015C0000AF0818881848182818692908980000ED0
:1015D000936EF3D73D803C6A010E3B6E386A376AE2
:1015E0003A683968306AF00E2F6E010E326E400E86
:1015F000316E346A336A366A356AA8EF0DF0818835
:1016000081868184818292908990020EC66F90DFDC
:1016100092908980819881860101016B01C18CFFC4
:10162000819481840001C06BC051060804E3819459
:101630008184C02BF9D78188640EC66F79DFB6EF3D
:101640000DF081983C50010A05E0030A26E0010AEA
:1016500051E073D0F0C0FAF0EFC0F9F0EEC0F0F056
:10166000EDC0EFF0EF0ED880F355ED6F000EF4559E
:10167000EE6FF2C0F4F0F1C0F3F0EF0ED880F95540
:10168000F16F000EFA55F26FF2C0F6F0F1C0F5F00E
:10169000F0C0F8F0EFC0F7F058D0EEC0FAF0EDC0AF
:1016A000F9F0EF0ED880F155ED6F000EF255EE6FA8
:1016B000EF0ED880F955F16F000EFA55F26FF0C0B9
:1016C000FAF0EFC0F9F03F0ED880F355EF6F010E3E
:1016D000F455F06F3F0ED880F955F36F010EFA55AF
:1016E000F46FF2C0F6F0F1C0F5F0F4C0F8F0F3C01A
:1016F000F7F02BD0EEC0FAF0EDC0F9F0F0C0EEF04C
:10170000EFC0EDF03F0ED880F155EF6F010EF255AE
:10171000F06FF4C0F2F0F3C0F1F03F0ED880F9554D
:10172000F36F010EFA55F46FEEC0F6F0EDC0F5F070
:10173000F4C0F8F0F3C0F7F008D0EEC0F6F0EDC05A
:10174000F5F0F0C0F8F0EFC0F7F0FC6B500EFB6F57
:10175000EEC0FEF0EDC0FDF0FCC0FFF0FBC000F1FC
:101760008196FFC001F101C18CFF8194818400C189
:1017700001F101C18CFF81948184FEC0FFF0FDC0A6
:1017800000F18186FFC001F101C18CFF8194818449
:1017900000C101F101C18CFF81948184FC6B510E69
:1017A000FB6FF2C0FEF0F1C0FDF0FCC0FFF0FBC02B
:1017B00000F18196FFC001F101C18CFF8194818409
:1017C00000C101F101C18CFF81948184FEC0FFF052
:1017D000FDC000F18186FFC001F101C18CFF819441
:1017E000818400C101F101C18CFF81948184FC6B73
:1017F000520EFB6FF0C0FEF0EFC0FDF0FCC0FFF03A
:10180000FBC000F18196FFC001F101C18CFF819402
:10181000818400C101F101C18CFF81948184FEC0EB
:10182000FFF0FDC000F18186FFC001F101C18CFF16
:101830008194818400C101F101C18CFF8194818474
:10184000FC6B530EFB6FF4C0FEF0F3C0FDF0FCC068
:10185000FFF0FBC000F18196FFC001F101C18CFFD8
:101860008194818400C101F101C18CFF8194818444
:10187000FEC0FFF0FDC000F18186FFC001F101C193
:101880008CFF8194818400C101F101C18CFF81949E
:101890008184FC6B200EFB6FF6C0FEF0F5C0FDF0FE
:1018A000FCC0FFF0FBC000F18196FFC001F101C157
:1018B0008CFF8194818400C101F101C18CFF81946E
:1018C0008184FEC0FFF0FDC000F18186FFC001F100
:1018D00001C18CFF8194818400C101F101C18CFFA1
:1018E00081948184FC6B210EFB6FF8C0FEF0F7C081
:1018F000FDF0FCC0FFF0FBC000F18196FFC001F1DC
:1019000001C18CFF8194818400C101F101C18CFF70
:1019100081948184FEC0FFF0FDC000F18186FFC08C
:1019200001F101C18CFF8194818400C101F101C1E9
:101930008CFF819481848188120081983C50010A37
:1019400009E0030A0CE0010A0EE0100EC86F300E29
:10195000C76F0DD0100EC86F280EC76F08D0100EBD
:10196000C86FC76B04D0100EC86F180EC76FFC6B22
:10197000030EFB6FC8C0FEF0C7C0FDF0FCC0FFF057
:10198000FBC000F18196FFC001F101C18CFF819481
:10199000818400C101F101C18CFF81948184FEC06A
:1019A000FFF0FDC000F18186FFC001F101C18CFF95
:1019B0008194818400C101F101C18CFF81948184F3
:1019C000010E2F5CC96F000E3058CA6F010E315CDA
:1019D000CB6F000E3258CC6FEE6BED6BF06BEF6B94
:1019E000CAC0F2F0C9C0F1F0F46FCBC0F3F029DE49
:1019F00016EF0DF0030EC517C5C03CF0C551FC0F26
:101A000012E2040F17EF0DF0306AF00E2F6E010E88
:101A1000326E400E316E07D0010E306E400E2F6ECA
:101A2000326AF00E316EC5C0C6F087D71200E824C6
:101A3000F76AF736490FF66E1A0EF7220A00F550CC
:101A4000FA6E0800F550F96E081A181A081A181AD2
:101A5000C06B8198C05165085AE3C051C02B006E1D
:101A6000D89000360050036AC9EC00F00900F5CFA9
:101A700003F0C16F03C0C2F0C051C02B006ED890FC
:101A800000360050036AC9EC00F00900F5CF03F0FE
:101A9000C36F03C0C4F0C13D0FD0C2530DE1C4C039
:101AA000C5F0C52BC507D8B403D0C66941DDFAD748
:101AB000C3C0C6F03DDD2AD0C2C0FCF0C1C0FBF0FF
:101AC000C4C0FEF0C3C0FDF0FCC0FFF0FBC000F1DD
:101AD0008196FFC001F101C18CFF8194818400C116
:101AE00001F101C18CFF81948184FEC0FFF0FDC033
:101AF00000F18186FFC001F101C18CFF81948184D6
:101B000000C101F101C18CFF81948184A3D73CC045
:101B1000C5F070DFEE6BED6BF06BEF6BF26BEF0E01
:101B2000F16F010EF46F3F0EF36F8BDD8188C56B93
:101B300061DFEE6BED6BF06BEF6BF26BEF0EF16F45
:101B4000010EF46F3F0EF36F7CDDB7EF0DF039D56A
:101B500094948B940C0EBD6EB76AB66A000E04099D
:101B6000CA6E800ECB6E400EBE6E49D571D7C1EFE6
:101B70001CF0C9C001F0C8C000F0C867012A090004
:101B8000F5CFEEFF002EFBD7012EF9D7F86A120031
:101B9000819881960101016B01C18CFF8194818440
:101BA000220E016F01C18CFF819481848186080E11
:101BB0000001C36FC26BC16BC06BC151C35D42E317
:101BC00003E1C251C05D3EE2C0C0C6F0780EC1253F
:101BD000C76FF86AF76EC0C0F6FFEA6AC50EE96E15
:101BE000C96B010EC86FC5DF070EC46FC5C000F01A
:101BF000C451016E04E0D8900032012EFCD700A041
:101C00000DD00101016B01C18CFF81948184016BB6
:101C100001C18CFF819481840CD000010101016914
:101C200001C18CFF81948184016901C18CFF819481
:101C300081840001C451C407000AD8E1C02BD8B484
:101C4000C12BBBD7080EC36FC26BC16BC06BC15138
:101C5000C35D42E303E1C251C05D3EE2C0C0C6F0D5
:101C6000700EC125C76FF86AF76EC0C0F6FFEA6A4A
:101C7000C50EE96EC96B010EC86F7BDF070EC46F1E
:101C8000C5C000F0C451016E04E0D8900032012EAE
:101C9000FCD700A00DD00101016B01C18CFF819424
:101CA0008184016B01C18CFF819481840CD000017F
:101CB0000101016901C18CFF81948184016901C125
:101CC0008CFF819481840001C451C407000AD8E1CB
:101CD000C02BD8B4C12BBBD7080EC36FC26BC16B6E
:101CE000C06BC151C35D42E303E1C251C05D3EE23E
:101CF000C0C0C6F0680EC125C76FF86AF76EC0C0D5
:101D0000F6FFEA6AC50EE96EC96B010EC86F31DFD6
:101D1000070EC46FC5C000F0C451016E04E0D89036
:101D20000032012EFCD700A00DD00101016B01C1D2
:101D30008CFF81948184016B01C18CFF819481842B
:101D40000CD000010101016901C18CFF81948184E3
:101D5000016901C18CFF819481840001C451C407D1
:101D6000000AD8E1C02BD8B4C12BBBD7080EC36F73
:101D7000C26BC16BC06BC151C35D42E303E1C25191
:101D8000C05D3EE2C0C0C6F0600EC125C76FF86AF4
:101D9000F76EC0C0F6FFEA6AC50EE96EC96B010EA8
:101DA000C86FE7DE070EC46FC5C000F0C451016EF6
:101DB00004E0D8900032012EFCD700A00DD0010124
:101DC000016B01C18CFF81948184016B01C18CFF87
:101DD000819481840CD000010101016901C18CFF53
:101DE00081948184016901C18CFF81948184000107
:101DF000C451C407000AD8E1C02BD8B4C12BBBD74B
:101E0000050EC36F800EC26FC16BC06BC151C35D45
:101E100043E303E1C251C05D3FE2800EC025C66FBF
:101E20005A0EC121C76FF86AF76EC6C0F6FFEA6A9C
:101E3000C50EE96EC96B010EC86F9BDE070EC46F3D
:101E4000C5C000F0C451016E04E0D8900032012EEC
:101E5000FCD700A00DD00101016B01C18CFF819462
:101E60008184016B01C18CFF819481840CD00001BD
:101E70000101016901C18CFF81948184016901C163
:101E80008CFF819481840001C451C407000AD8E109
:101E9000C02BD8B4C12BBAD74EEF16F0C05302E016
:101EA000C05101D0010E3B6E52EF16F03B50060DB3
:101EB000F3CFD5F0196AF2BE198EF29E0101106BB4
:101EC000D5C00FF1D1C012F1D0C011F1000106EC64
:101ED00004F019BEF28E02C034F001C033F03B5062
:101EE000080DF3CFD5F0196AF2BE198EF29E0101EA
:101EF000106BD5C00FF1D3C012F1D2C011F10001A7
:101F000006EC04F019BEF28E02C036F001C035F0C6
:101F1000120081983C50010A05E0030A13E0010A0F
:101F20001CE02AD0DCC0E2F0DBC0E1F0EF0ED8808C
:101F3000DD55DB6F000EDE55DC6FE2C0DEF0E1C088
:101F4000DDF01AD0EF0ED880DB57000EDC573F0EC5
:101F5000D880DD57010EDE570FD0DCC0E2F0DBC0C9
:101F6000E1F0DEC0DCF0DDC0DBF03F0ED880E155F3
:101F7000DD6F010EE255DE6FFC6B200EFB6FDCC0E7
:101F8000FEF0DBC0FDF0FCC0FFF0FBC000F181966D
:101F9000FFC001F101C18CFF8194818400C101F176
:101FA00001C18CFF81948184FEC0FFF0FDC000F16F
:101FB0008186FFC001F101C18CFF8194818400C141
:101FC00001F101C18CFF81948184FC6B210EFB6FB8
:101FD000DEC0FEF0DDC0FDF0FCC0FFF0FBC000F194
:101FE0008196FFC001F101C18CFF8194818400C101
:101FF00001F101C18CFF81948184FEC0FFF0FDC01E
:1020000000F18186FFC001F101C18CFF81948184C0
:1020100000C101F101C18CFF81948184FC6B220E0F
:10202000FB6FE0C0FEF0DFC0FDF0FCC0FFF0FBC0C6
:1020300000F18196FFC001F101C18CFF8194818480
:1020400000C101F101C18CFF81948184FEC0FFF0C9
:10205000FDC000F18186FFC001F101C18CFF8194B8
:10206000818400C101F101C18CFF81948184818848
:102070001200F56BF66B010EF76FDA6AD96AFA6B2C
:10208000ED0EF96FEA6AF10EE96EFAC0E2FFF9C0EF
:10209000E1FFF7C0F8F0D890E550EE02F350F523D9
:1020A000F450F623F82FF7D7F5C0DEFFF6C0F5F0B1
:1020B000F66BD8B0F62BF92BD8B4FA2BF72BF751D7
:1020C0000508E0E1EAEF11F0EEC0F6F0EDC0F7F040
:1020D000819881960101016B01C18CFF81948184FB
:1020E000220E016F01C18CFF819481848186F6C02C
:1020F00001F101C18CFF81948184F7C001F101C11C
:102100008CFF81948184FF0E0001EF27D8A0F02777
:10211000D8A0F127D8A0F227F231036EF131026E78
:10212000F031016EEF31006E0332023201320032C3
:102130000332023201320032033202320132003203
:1021400003320232013200320332023201320032F3
:10215000030E031601C0F4F000C0F3F0F751F65D72
:102160002AE1F4C003F0F351D8B4F407F3070310E5
:1021700015E0100EF56F819481848194818481949F
:1021800081848194818481948184819481848194E7
:10219000818481948184F52FEED7E3D7EF513F0BF3
:1021A000F56FF551F507000A05E08194818481946B
:1021B0008184F7D751D0F4C003F0F351D8B4F407B9
:1021C000F307031035E0100EF56FF6C001F101C101
:1021D0008CFF81948184F7C001F101C18CFF81944F
:1021E0008184F6C001F101C18CFF81948184F7C024
:1021F00001F101C18CFF81948184F6C001F101C11C
:102200008CFF81948184F7C001F101C18CFF81941E
:102210008184F6C001F101C18CFF81948184F7C0F3
:1022200001F101C18CFF81948184F52FCED7C3D7F2
:10223000EF513F0BF56FF551F507000A0DE0F6C0C1
:1022400001F101C18CFF81948184F7C001F101C1CA
:102250008CFF81948184EFD781881200E0BF3AD04F
:10226000E05303E1DF51000835E2E2BF33D0E2532F
:1022700003E1E15100082EE2DCBF07D03050DC5D05
:1022800004E328E12F50DB5D25E2DEBF07D03250AA
:10229000DE5D04E31FE13150DD5D1CE2DF51DB2533
:1022A000E96FE051DC21EA6F010EE95DE56F000E98
:1022B000EA59E66FE6BF0ED0E151DD25E96FE25144
:1022C000DE21EA6F010EE95DE76F000EEA59E86F63
:1022D000E8AF01D0ADD0DCBF01D006D0DB51DF27A5
:1022E000DC51E023DC6BDB6BDEBF01D006D0DD51BF
:1022F000E127DE51E223DE6BDD6BE6BF1BD0305001
:10230000E65D18E303E12F50E55D14E3010E2F5C59
:10231000006E000E305800C0E5F0E66FDB51E55D61
:10232000E96FDC51E659EA6F010EE925DF6F000E17
:10233000EA21E06FE8BF1BD03250E85D18E303E10B
:102340003150E75D14E3010E315C006E000E32582F
:1023500000C0E7F0E86FDD51E75DE96FDE51E85955
:10236000EA6F010EE925E16F000EEA21E26FDCC0A1
:10237000EEF0DBC0EDF0DEC0F0F0DDC0EFF0E6C067
:10238000F2F0E5C0F1F0E8C0F4F0E7C0F3F021ECC2
:102390000BF0026A036A03C0ECF002C0EBF0E0C08D
:1023A000EAF0DFC0E9F0E1C000F0E2C001F0026A4B
:1023B000036AECC0F0F0EBC0EFF0E0C0EEF0DFC07D
:1023C000EDF003C0F4F002C0F3F0E2C0F2F0E1C0BF
:1023D000F1F04FD603C0ECF002C0EBF001C0EAF020
:1023E00000C0E9F0E4C0EEF0E3C0EDF003C0F2F0AD
:1023F00002C0F1F001C0F0F000C0EFF065DE010EA8
:102400002F5CE96F000E3058EA6F010E315CEB6F04
:10241000000E3258EC6FEE6BED6BF06BEF6BEAC0B9
:10242000F2F0E9C0F1F0F46FEBC0F3F021EC0BF047
:1024300012000900F552D8B407D1F6CFC4F0F7CF97
:10244000C5F0F5CFC7F0C7510A0809E13B50080DA8
:10245000F3503526000E3622346A336AF0D0C75165
:102460000D0802E1ECD0EBD034C0C9F033C0C8F0A5
:1024700036C0CBF035C0CAF0C7C0CCF038C0CEF003
:1024800037C0CDF03AC0D0F039C0CFF03BC0D1F06A
:10249000D26BD2510508D8A0B1D0D251050802E1C3
:1024A000D46B1ED0196AF2BE198EF29E0101106B18
:1024B000CCC00FF1126B050E116F000106EC04F099
:1024C00019BEF28ED2510124D56F000E0220D66FB4
:1024D000D6C003F0D551D6C0F7FF37EC01F0D46F6A
:1024E000D36BD3510708D8A087D0D4A13ED0D12D2B
:1024F00019D0D251C825D76F000EC921D86FD3513A
:10250000CA25D96F000ECB21DA6FD8C0DCF0D7C056
:10251000DBF0DE6FD9C0DDF0CEC0E0F0CDC0DFF083
:10252000F8DC22D0D251D103F350C825D76F000E6A
:10253000C921D86FD351D103F350CA25D96F000EEA
:10254000CB21DA6FD8C0DCF0D7C0DBF0DE6FD9C0AA
:10255000DDF0E06BD1C0DFF0E26BD1C0E1F0CEC0C6
:10256000E4F0CDC0E3F07ADE43D0CD51CF5D03E19E
:10257000CE51D05D3DE0D12D19D0D251C825D76FB5
:10258000000EC921D86FD351CA25D96F000ECB21B7
:10259000DA6FD8C0DCF0D7C0DBF0DE6FD9C0DDF079
:1025A000D0C0E0F0CFC0DFF0B4DC22D0D251D103F4
:1025B000F350C825D76F000EC921D86FD351D1036E
:1025C000F350CA25D96F000ECB21DA6FD8C0DCF0EA
:1025D000D7C0DBF0DE6FD9C0DDF0E06BD1C0DFF03B
:1025E000E26BD1C0E1F0D0C0E4F0CFC0E3F036DE62
:1025F000D890D433D32B75D7D22B4BD73B50060D65
:10260000F3503326000E34223DA019D03B50060D66
:10261000F3502F5C006E000E3058036E00C001F0C6
:102620000350345C0CE303E13350015C08E23B509F
:10263000080DF3503526000E3622346A336AC4C0C2
:10264000F6FFC5C0F7FFF5D612000900F6CFC5F0BA
:10265000F7CFC6F0F5CFC7F0C7510A0809E13B50E4
:10266000080DF3503526000E3622346A336AF2D054
:10267000C7510D0802E1EED0EDD034C0C9F033C02F
:10268000C8F036C0CBF035C0CAF0C7C0CCF038C0F7
:10269000CEF037C0CDF03AC0D0F039C0CFF03BC05B
:1026A000D1F0D26BD2510508D8A0B3D0D2510508D1
:1026B00002E1D46B1ED0196AF2BE198EF29E01019E
:1026C000106BCCC00FF1126B050E116F000106EC00
:1026D00004F019BEF28ED2510124D56F000E0220F3
:1026E000D66FD6C003F0D551D6C0F7FF37EC01F056
:1026F000D46FD36BD3510708D8A089D0D4A13FD0D1
:10270000D12D1AD0D251C825D76F000EC921D86F4C
:10271000D351CA25D96F000ECB21DA6FD8C0DCF0B7
:10272000D7C0DBF0DE6FD9C0DDF0CEC0E0F0CDC0A9
:10273000DFF089EC0FF022D0D251D103F350C8253D
:10274000D76F000EC921D86FD351D103F350CA25DA
:10275000D96F000ECB21DA6FD8C0DCF0D7C0DBF028
:10276000DE6FD9C0DDF0E06BD1C0DFF0E26BD1C02D
:10277000E1F0CEC0E4F0CDC0E3F070DD44D0CD5147
:10278000CF5D03E1CE51D05D3EE0D12D1AD0D251C4
:10279000C825D76F000EC921D86FD351CA25D96F6C
:1027A000000ECB21DA6FD8C0DCF0D7C0DBF0DE6FD3
:1027B000D9C0DDF0D0C0E0F0CFC0DFF089EC0FF081
:1027C00022D0D251D103F350C825D76F000EC921B2
:1027D000D86FD351D103F350CA25D96F000ECB2146
:1027E000DA6FD8C0DCF0D7C0DBF0DE6FD9C0DDF027
:1027F000E06BD1C0DFF0E26BD1C0E1F0D0C0E4F01B
:10280000CFC0E3F02BDDD890D433D32B73D7D22BAA
:1028100049D73B50060DF3503326000E34223DA01D
:1028200019D03B50060DF3502F5C006E000E30584F
:10283000036E00C001F00350345C0CE303E133503D
:10284000015C08E23B50080DF3503526000E36229D
:10285000346A336AC5C0F6FFC6C0F7FFC42FF5D689
:102860001200C1BF0CD10F0E006EC03900160A0E47
:10287000005C03E2300E002602D0C151002600C0E9
:10288000C7F0C7510A0809E13B50080DF35035263F
:10289000000E3622346A336AF2D0C7510D0802E1C5
:1028A000EED0EDD034C0C9F033C0C8F036C0CBF0A4
:1028B00035C0CAF0C7C0CCF038C0CEF037C0CDF0BC
:1028C0003AC0D0F039C0CFF03BC0D1F0D26BD2517A
:1028D0000508D8A0B3D0D251050802E1D46B1ED0B0
:1028E000196AF2BE198EF29E0101106BCCC00FF175
:1028F000126B050E116F000106EC04F019BEF28E8A
:10290000D2510124D56F000E0220D66FD6C003F03D
:10291000D551D6C0F7FF37EC01F0D46FD36BD3514C
:102920000708D8A089D0D4A13FD0D12D1AD0D25138
:10293000C825D76F000EC921D86FD351CA25D96FCA
:10294000000ECB21DA6FD8C0DCF0D7C0DBF0DE6F31
:10295000D9C0DDF0CEC0E0F0CDC0DFF089EC0FF0E3
:1029600022D0D251D103F350C825D76F000EC92110
:10297000D86FD351D103F350CA25D96F000ECB21A4
:10298000DA6FD8C0DCF0D7C0DBF0DE6FD9C0DDF085
:10299000E06BD1C0DFF0E26BD1C0E1F0CEC0E4F07B
:1029A000CDC0E3F05BDC44D0CD51CF5D03E1CE512F
:1029B000D05D3EE0D12D1AD0D251C825D76F000E80
:1029C000C921D86FD351CA25D96F000ECB21DA6F38
:1029D000D8C0DCF0D7C0DBF0DE6FD9C0DDF0D0C0EE
:1029E000E0F0CFC0DFF089EC0FF022D0D251D1035C
:1029F000F350C825D76F000EC921D86FD351D1032A
:102A0000F350CA25D96F000ECB21DA6FD8C0DCF0A5
:102A1000D7C0DBF0DE6FD9C0DDF0E06BD1C0DFF0F6
:102A2000E26BD1C0E1F0D0C0E4F0CFC0E3F016DC3F
:102A3000D890D433D32B73D7D22B49D73B50060D24
:102A4000F3503326000E34223DA019D03B50060D22
:102A5000F3502F5C006E000E3058036E00C001F082
:102A60000350345C0CE303E13350015C08E23B505B
:102A7000080DF3503526000E3622346A336A0F0EE5
:102A8000C0170A0EC05D02E2300E02D0C19FC151D4
:102A9000C027C0C0C7F0C7510A0809E13B50080D64
:102AA000F3503526000E3622346A336AF4D0C7510B
:102AB0000D0802E1F0D0EFD034C0C9F033C0C8F047
:102AC00036C0CBF035C0CAF0C7C0CCF038C0CEF0AD
:102AD00037C0CDF03AC0D0F039C0CFF03BC0D1F014
:102AE000D26BD2510508D8A0B5D0D251050802E169
:102AF000D46B1ED0196AF2BE198EF29E0101106BC2
:102B0000CCC00FF1126B050E116F000106EC04F042
:102B100019BEF28ED2510124D56F000E0220D66F5D
:102B2000D6C003F0D551D6C0F7FF37EC01F0D46F13
:102B3000D36BD3510708D8A08BD0D4A140D0D12DCE
:102B40001AD0D251C825D76F000EC921D86FD351E2
:102B5000CA25D96F000ECB21DA6FD8C0DCF0D7C000
:102B6000DBF0DE6FD9C0DDF0CEC0E0F0CDC0DFF02D
:102B700089EC0FF023D0D251D103F350C825D76F81
:102B8000000EC921D86FD351D103F350CA25D96F94
:102B9000000ECB21DA6FD8C0DCF0D7C0DBF0DE6FDF
:102BA000D9C0DDF0E06BD1C0DFF0E26BD1C0E1F065
:102BB000CEC0E4F0CDC0E3F02EEC11F045D0CD5105
:102BC000CF5D03E1CE51D05D3FE0D12D1AD0D2517F
:102BD000C825D76F000EC921D86FD351CA25D96F28
:102BE000000ECB21DA6FD8C0DCF0D7C0DBF0DE6F8F
:102BF000D9C0DDF0D0C0E0F0CFC0DFF089EC0FF03D
:102C000023D0D251D103F350C825D76F000EC9216C
:102C1000D86FD351D103F350CA25D96F000ECB2101
:102C2000DA6FD8C0DCF0D7C0DBF0DE6FD9C0DDF0E2
:102C3000E06BD1C0DFF0E26BD1C0E1F0D0C0E4F0D6
:102C4000CFC0E3F02EEC11F0D890D433D32B71D752
:102C5000D22B47D73B50060DF3503326000E3422BB
:102C60003DA019D03B50060DF3502F5C006E000EB6
:102C70003058036E00C001F00350345C0CE303E1F4
:102C80003350015C08E23B50080DF3503526000E2E
:102C90003622346A336A1200C8EF0DF0010EC06F9D
:102CA0004EEF0FF0D16B010ED06FD36B180ED26FB9
:102CB00056EC0FF0E00EF66E130EF76E19EC12F0F4
:102CC000200EC76FC7510A0809E13B50080DF350A9
:102CD0003526000E3622346A336AF4D0C7510D0807
:102CE00002E1F0D0EFD034C0C9F033C0C8F036C034
:102CF000CBF035C0CAF0C7C0CCF038C0CEF037C07A
:102D0000CDF03AC0D0F039C0CFF03BC0D1F0D26B9B
:102D1000D2510508D8A0B5D0D251050802E1D46B34
:102D20001ED0196AF2BE198EF29E0101106BCCC042
:102D30000FF1126B050E116F000106EC04F019BEC5
:102D4000F28ED2510124D56F000E0220D66FD6C06C
:102D500003F0D551D6C0F7FF37EC01F0D46FD36B39
:102D6000D3510708D8A08BD0D4A140D0D12D1AD0F0
:102D7000D251C825D76F000EC921D86FD351CA25AB
:102D8000D96F000ECB21DA6FD8C0DCF0D7C0DBF0F2
:102D9000DE6FD9C0DDF0CEC0E0F0CDC0DFF089EC51
:102DA0000FF023D0D251D103F350C825D76F000EB6
:102DB000C921D86FD351D103F350CA25D96F000E62
:102DC000CB21DA6FD8C0DCF0D7C0DBF0DE6FD9C022
:102DD000DDF0E06BD1C0DFF0E26BD1C0E1F0CEC03E
:102DE000E4F0CDC0E3F02EEC11F045D0CD51CF5D35
:102DF00003E1CE51D05D3FE0D12D1AD0D251C8258C
:102E0000D76F000EC921D86FD351CA25D96F000ED4
:102E1000CB21DA6FD8C0DCF0D7C0DBF0DE6FD9C0D1
:102E2000DDF0D0C0E0F0CFC0DFF089EC0FF023D0B0
:102E3000D251D103F350C825D76F000EC921D86FE6
:102E4000D351D103F350CA25D96F000ECB21DA6FCD
:102E5000D8C0DCF0D7C0DBF0DE6FD9C0DDF0E06BAE
:102E6000D1C0DFF0E26BD1C0E1F0D0C0E4F0CFC060
:102E7000E3F02EEC11F0D890D433D32B71D7D22BB2
:102E800047D73B50060DF3503326000E34223DA0A9
:102E900019D03B50060DF3502F5C006E000E3058D9
:102EA000036E00C001F00350345C0CE303E13350C7
:102EB000015C08E23B50080DF3503526000E362227
:102EC000346A336AEA0EF66E130EF76E19EC12F0DE
:102ED000C90EF66E130EF76E070EC46F25EC13F0D5
:102EE000F40EF66E130EF76E19EC12F0D20EF66EAB
:102EF000130EF76E0D0EC46F25EC13F0D16B010E9F
:102F0000D06FD36B1C0ED26F56EC0FF0FA0EF66E2C
:102F1000130EF76E0B0EC46F25EC13F0C06B570E3B
:102F2000C16F9FDC2E0EC76FC7510A0809E13B50E5
:102F3000080DF3503526000E3622346A336AF4D079
:102F4000C7510D0802E1F0D0EFD034C0C9F033C052
:102F5000C8F036C0CBF035C0CAF0C7C0CCF038C01E
:102F6000CEF037C0CDF03AC0D0F039C0CFF03BC082
:102F7000D1F0D26BD2510508D8A0B5D0D2510508F6
:102F800002E1D46B1ED0196AF2BE198EF29E0101C5
:102F9000106BCCC00FF1126B050E116F000106EC27
:102FA00004F019BEF28ED2510124D56F000E02201A
:102FB000D66FD6C003F0D551D6C0F7FF37EC01F07D
:102FC000D46FD36BD3510708D8A08BD0D4A140D0F5
:102FD000D12D1AD0D251C825D76F000EC921D86F74
:102FE000D351CA25D96F000ECB21DA6FD8C0DCF0DF
:102FF000D7C0DBF0DE6FD9C0DDF0CEC0E0F0CDC0D1
:10300000DFF089EC0FF023D0D251D103F350C82563
:10301000D76F000EC921D86FD351D103F350CA2501
:10302000D96F000ECB21DA6FD8C0DCF0D7C0DBF04F
:10303000DE6FD9C0DDF0E06BD1C0DFF0E26BD1C054
:10304000E1F0CEC0E4F0CDC0E3F02EEC11F045D0BD
:10305000CD51CF5D03E1CE51D05D3FE0D12D1AD0EF
:10306000D251C825D76F000EC921D86FD351CA25B8
:10307000D96F000ECB21DA6FD8C0DCF0D7C0DBF0FF
:10308000DE6FD9C0DDF0D0C0E0F0CFC0DFF089EC5A
:103090000FF023D0D251D103F350C825D76F000EC3
:1030A000C921D86FD351D103F350CA25D96F000E6F
:1030B000CB21DA6FD8C0DCF0D7C0DBF0DE6FD9C02F
:1030C000DDF0E06BD1C0DFF0E26BD1C0E1F0D0C049
:1030D000E4F0CFC0E3F02EEC11F0D890D433D32B32
:1030E00071D7D22B47D73B50060DF3503326000E35
:1030F00034223DA019D03B50060DF3502F5C006EDA
:10310000000E3058036E00C001F00350345C0CE335
:1031100003E13350015C08E23B50080DF3503526C3
:10312000000E3622346A336A330EC06F570EC16FF9
:1031300031EC14F0C7EF1CF06D6A696A080E6F6E0F
:1031400094503009946E226A196AF2BE198EF29E6A
:103150005EEC04F019BEF28EAFEF18F0EDD7D4EFAD
:1031600018F0196AF2BE198EF29E5EEC04F019BED8
:10317000F28E6D6A140E6F6E696A6D86010E226E94
:10318000C5EF18F06DB601D0ECD7222C0BD06DBA7C
:1031900009D0686A696AA08AC00EF212110E696EBF
:1031A000020E226E1200DAD7EDDF22500208FCE197
:1031B000C8EF1CF01B50016EC9EF1CF0016603D074
:1031C000026602D007D0022A00C0EEFF012EFCD713
:1031D000022EFAD7DBEF1CF0196AF2BE198EF29EAE
:1031E000C0C00AF126EC08F019BEF28E015252E07E
:1031F000196AF2BE198EF29E0101106BC0C00FF168
:10320000126B080E116F000106EC04F019BEF28E6D
:1032100002C0C9F001C0C8F0040EC827000EC923BF
:10322000020EC825016E000EC921036E01C0E9FF20
:10323000040E0324EA6EECCFC7F0ED52EFCFC6F0D8
:10324000C7C0EAFFC6C0E9FFC2C0E2FFC1C0E1FFDC
:10325000C4C002F0C3C001F0015202E0022A02D051
:10326000025206E0E6CFEEFF012EFCD7022EFAD77F
:10327000196AF2BE198EF29EC0C005F1C4C007F1F2
:10328000C3C006F1C5C008F151EC08F019BEF28EBA
:10329000015002D0000E016E1AEF1DF0036AC051FA
:1032A000700FE96E0F0E0320EA6EEF521DE0196AEF
:1032B000F2BE198EF29E0101106BC0C00FF1126BAD
:1032C000080E116F000106EC04F019BEF28E02C068
:1032D000C2F001C0C1F001C0E9FF040E0224EA6E91
:1032E000EFCFC3F0C3AF02D0000E01D0010E016ECC
:1032F0001EEF1DF0196AF2BE198EF29E0101106BCD
:10330000C5C00FF1126B080E116F000106EC04F03E
:1033100019BEF28E01C0CFF0020E0124016E000E24
:103320000220036E01C0E9FF040E0324EA6EECCF15
:10333000CBF0ED52EFCFCAF0196AF2BE198EF29EB1
:103340000101106BC5C00FF1126B080E116F000167
:1033500006EC04F019BEF28E01C0CFF0010E01247C
:10336000016E000E0220036E01C0E9FF040E03246B
:10337000EA6ECE6BEFCFCDF0196AF2BE198EF29ED7
:103380000101106BC5C00FF1126B080E116F000127
:1033900006EC04F019BEF28E01C0E9FF040E02240F
:1033A000EA6EEFCFCCF0CCB1CE81CCB3CE83CE5190
:1033B000C95D08E303E1C851CD5D04E2CEC0C9F0A8
:1033C000CDC0C8F0C7C0EAFFC6C0E9FFCBC0E2FF6E
:1033D000CAC0E1FFC9C002F0C8C001F0015202E05A
:1033E000022A02D0025206E0E6CFEEFF012EFCD701
:1033F000022EFAD7C8C001F0C9C002F00BEF1AF0D4
:10340000C0C0C5F0C2C0C7F0C1C0C6F0C4C0C9F0DA
:10341000C3C0C8F06FD702C0C4F001C0C3F0196ABE
:10342000F2BE198EF29EC0C005F1020E0101066FB8
:103430000001ABEC07F019BEF28EC3C001F0C4C0AE
:1034400002F02BEF1DF0D16BD06BD36BD26B56EC2F
:103450000FF0F9EF20F0CDC0D1F0CCC0D0F0CFC04C
:10346000D3F0CEC0D2F056EC0FF0F9EF20F03C5084
:10347000010A09E0030A0DE0010A13E0C76BC66BFD
:10348000C96BC86B14D0C76BEF0EC66FC96BC86B26
:103490000ED0C76BEF0EC66F010EC96F3F0EC86F1F
:1034A00006D0C76BC66B010EC96F3F0EC86F8198FF
:1034B000FC6B200EFB6FC7C0FEF0C6C0FDF0FCC069
:1034C000FFF0FBC000F18196FFC001F101C18CFF4C
:1034D0008194818400C101F101C18CFF81948184B8
:1034E000FEC0FFF0FDC000F18186FFC001F101C107
:1034F0008CFF8194818400C101F101C18CFF819412
:103500008184FC6B210EFB6FC9C0FEF0C8C0FDF0CA
:10351000FCC0FFF0FBC000F18196FFC001F101C1CA
:103520008CFF8194818400C101F101C18CFF8194E1
:103530008184FEC0FFF0FDC000F18186FFC001F173
:1035400001C18CFF8194818400C101F101C18CFF14
:1035500081948184C5C0EEF0C4C0EDF0F26B010E21
:10356000F16F2C0EF06FEF6B64EC10F0BDEF1AF002
:103570003AC0C5F039C0C4F07AD7F9EF20F0F9EFBE
:1035800020F0EACFCCF0E9CFCBF0C5AF08D0CB8F9D
:10359000CBA9CB2BC41FC51FC42BD8B4C52BC53991
:1035A000F009C76FC727E20FC86F320FCA6FC55146
:1035B0000F0BC827C827CA27E90FC96FC927C92712
:1035C000C4390F0BC927CA27C937CA37CA1FCA3718
:1035D000C4510F0BCA27C737070EC66F0A0EC9079B
:1035E000CA27FDE3C807C927FDE3C707C827FDE3CE
:1035F000C607C727FDE3EA6AC60EE96E070ECB15BC
:10360000CB9DE906CB1507E1CBB9E92ACBB903D0AD
:10361000200E006E1CD0E926CA0EE95CD8B4CB8D12
:10362000EF50006E08E1CBBD06D0CBB914D0CBB7BC
:1036300002D0200E0BD0CBAF06D02D0E006EED5079
:10364000CB9DCB9F04D0CB87CB99300E002600506A
:103650009EA8FED7AD6EEE50CBADDED71200EACFFE
:10366000CCF0E9CFCBF0C539F009C76FC727E20F1F
:10367000C86F320FCA6FC5510F0BC827C827CA279A
:10368000E90FC96FC927C927C4390F0BC927CA2732
:10369000C937CA37CA1FCA37C4510F0BCA27C73721
:1036A000070EC66F0A0EC907CA27FDE3C807C92758
:1036B000FDE3C707C827FDE3C607C727FDE3EA6A9E
:1036C000C60EE96E070ECB15CB9DE926CA0EE95C46
:1036D000D8B4CB8DEF50006E08E1CBBD06D0CBB98E
:1036E0000CD0CBB702D0200E03D0CB87CB99300EB5
:1036F000002600509EA8FED7AD6EEE50CBADE6D7AB
:1037000012000C0EF66E140EF76E140EC46FACECB5
:103710000AF0100EE96E2CC0C5F02BC0C4F031DFEA
:10372000230EF66E140EF76E080EC46FACEC0AF0A2
:10373000100EE96E2EC0C5F02DC0C4F022DF0A0EB7
:103740009EA8FED7AD6E0D0E9EA8FED7AD6E320EB2
:10375000F66E140EF76E080EC46FACEC0AF0100E85
:10376000E96E30C0C5F02FC0C4F079DF3D0EF66EB3
:10377000140EF76E0A0EC46FACEC0AF0100EE96E70
:1037800032C0C5F031C0C4F06ADF0A0E9EA8FED771
:10379000AD6E0D0E9EA8FED7AD6E4E0EF66E140EDB
:1037A000F76E0A0EC46FACEC0AF0100EE96E34C06E
:1037B000C5F033C0C4F0E5DE5B0EF66E140EF76E96
:1037C0000B0EC46FACEC0AF0100EE96E36C0C5F0FB
:1037D00035C0C4F0D6DE0A0E9EA8FED7AD6E0D0E23
:1037E0009EA8FED7AD6E6C0EF66E140EF76E0B0E25
:1037F000C46FACEC0AF0100EE96E38C0C5F037C0EB
:10380000C4F02DDF7A0EF66E140EF76E0D0EC46F37
:10381000ACEC0AF0100EE96E3AC0C5F039C0C4F045
:103820001EDF0A0E9EA8FED7AD6E0D0E9EA8FED717
:10383000AD6EF9EF20F0C5C038F0C4C037F0C7C096
:103840003AF0C6C039F0D6EF1DF0F86AD09E078E68
:10385000EA6AE96AB886D10EAF6E000EB06EA60EA7
:10386000AC6E900EAB6EC150C00B0F09C16E070E4F
:10387000B46E1E6A040E1F6E0C0E206E2B6A2C6A2C
:103880002D6A2E6A2F6A306A316A326A336A346A64
:10389000356A366A376A386A396A3A6A3B6A3C6A14
:1038A0003D6A2A6A8E0EF66E140EF76E87EC0AF0E9
:1038B000320EC66F98EC0AF0960EF66E140EF76E86
:1038C0000E0EC46FACEC0AF0C06B570EC16FBCECAF
:1038D0000AF02E0E9EA8FED7AD6E330EC06F570EA7
:1038E000C16FBCEC0AF0A90EF66E140EF76E060E50
:1038F000C46FACEC0AF0B40EF66E140EF76E87ECE3
:103900000AF00D0E9EA8FED7AD6E0A0E9EA8FED739
:10391000AD6EC00EF66E140EF76E080EC46FACECF2
:103920000AF0F40EF66E140EF76E87EC0AF0CA0E6B
:10393000F66E140EF76E150EC46FACEC0AF0FA0EAC
:10394000F66E140EF76E87EC0AF0200E9EA8FED7D6
:10395000AD6E040EF66E150EF76E87EC0AF0E40EEF
:10396000F66E140EF76E0F0EC46FACEC0AF0320E4A
:10397000C66F98EC0AF03E0E3E6E5F0E3F6EA7EFEC
:103980000DF0030EC56FFAEC0CF04CEF16F00BD4F3
:1039900011D40152D8B45FEF22F0C2EC18F02A52D1
:1039A0004AE02AC080F0EA6A810EE96E006A026A83
:1039B0003F0E016E03D4C16B800EC06FC0C0E9FF23
:1039C000C1C0EAFFEF50010A09E0030A24E0050A3A
:1039D00023E00F0A22E0010A21E020D0010EC025D9
:1039E000E96E000EC121EA6E020EEF6EC025016E77
:1039F000000EC121036E01C0C2F0C36FEA6E01C0A8
:103A0000E9FFE26A3E0EE16E020E016EE6CFEEFFC6
:103A1000012EFCD703D002D001D000D0010EC06F20
:103A2000C26B800EC16FC46B400EC36F020EC56FB8
:103A3000ECEF18F02A6A010EC06F30D40152D8B4EE
:103A40005FEF22F08A9A010EC06FC26B400EC16F09
:103A5000C46BC36FD5D4C16B400EC06FC0C0E9FF4B
:103A6000C1C0EAFFEF50FE08D8A4F9EF20F0010E24
:103A7000C025E96E000EC121EA6EEF50010A15E083
:103A8000030A16E0050A46E00F0A46E0010AD8B428
:103A900075D0510AD8B483D0DD0AD8B482D0A70A31
:103AA000D8B4F7EF20F0F9EF20F0CDD4F9EF20F003
:103AB000020EC025E96E000EC121EA6EEFCFC4F000
:103AC000030EC025E96E000EC121EA6EEFCFC5F0EE
:103AD000C4C0C7F0C5C0C6F0040EC025E96E000E14
:103AE000C121EA6EEFCFC8F0050EC025E96E000EC9
:103AF000C121EA6EEFCFC9F0C8C0CBF0C9C0CAF08F
:103B0000C4C0CDF0C5C0CCF0C8C0CFF0C9C0CEF0A5
:103B1000A2D46FD32DD56DD3020EC025E96E000E51
:103B2000C121EA6EEFCFC4F0030EC025E96E000E8E
:103B3000C121EA6EEFCFC5F0C4C0C7F0C5C0C6F062
:103B4000040EC025E96E000EC121EA6EEFCFC8F069
:103B5000050EC025E96E000EC121EA6EEFCFC9F057
:103B6000C8C0CBF0C9C0CAF0C4C0CDF0C5C0CCF04D
:103B7000C8C0CFF0C9C0CEF002D53BD381988196A2
:103B80000101016B01C18CFF81948184220E016FC0
:103B900001C18CFF81948184818600012AD3B1D533
:103BA00028D3C56BC46BC769C66945D6AA0EF66E25
:103BB000130EF76E19EC12F0200EC76FC7510A08EA
:103BC00009E13B50080DF3503526000E3622346AC9
:103BD000336AF4D0C7510D0802E1F0D0EFD034C001
:103BE000C9F033C0C8F036C0CBF035C0CAF0C7C08A
:103BF000CCF038C0CEF037C0CDF03AC0D0F039C0EC
:103C0000CFF03BC0D1F0D26BD2510508D8A0B5D0CF
:103C1000D251050802E1D46B1ED0196AF2BE198E8A
:103C2000F29E0101106BCCC00FF1126B050E116FEB
:103C3000000106EC04F019BEF28ED2510124D56FBA
:103C4000000E0220D66FD6C003F0D551D6C0F7FFC4
:103C500037EC01F0D46FD36BD3510708D8A08BD0C9
:103C6000D4A140D0D12D1AD0D251C825D76F000E83
:103C7000C921D86FD351CA25D96F000ECB21DA6F75
:103C8000D8C0DCF0D7C0DBF0DE6FD9C0DDF0CEC02D
:103C9000E0F0CDC0DFF089EC0FF023D0D251D1039A
:103CA000F350C825D76F000EC921D86FD351D10367
:103CB000F350CA25D96F000ECB21DA6FD8C0DCF0E3
:103CC000D7C0DBF0DE6FD9C0DDF0E06BD1C0DFF034
:103CD000E26BD1C0E1F0CEC0E4F0CDC0E3F02EEC59
:103CE00011F045D0CD51CF5D03E1CE51D05D3FE025
:103CF000D12D1AD0D251C825D76F000EC921D86F47
:103D0000D351CA25D96F000ECB21DA6FD8C0DCF0B1
:103D1000D7C0DBF0DE6FD9C0DDF0D0C0E0F0CFC09F
:103D2000DFF089EC0FF023D0D251D103F350C82536
:103D3000D76F000EC921D86FD351D103F350CA25D4
:103D4000D96F000ECB21DA6FD8C0DCF0D7C0DBF022
:103D5000DE6FD9C0DDF0E06BD1C0DFF0E26BD1C027
:103D6000E1F0D0C0E4F0CFC0E3F02EEC11F0D89039
:103D7000D433D32B71D7D22B47D73B50060DF350FA
:103D80003326000E34223DA019D03B50060DF350CF
:103D90002F5C006E000E3058036E00C001F003501F
:103DA000345C0CE303E13350015C08E23B50080D46
:103DB000F3503526000E3622346A336AB40EF66E9E
:103DC000130EF76E19EC12F09D0EF66E130EF76ED1
:103DD000070EC46F25EC13F0BE0EF66E130EF76ED1
:103DE00019EC12F0200EC76FC7510A0809E13B50C9
:103DF000080DF3503526000E3622346A336AF4D0AB
:103E0000C7510D0802E1F0D0EFD034C0C9F033C083
:103E1000C8F036C0CBF035C0CAF0C7C0CCF038C04F
:103E2000CEF037C0CDF03AC0D0F039C0CFF03BC0B3
:103E3000D1F0D26BD2510508D8A0B5D0D251050827
:103E400002E1D46B1ED0196AF2BE198EF29E0101F6
:103E5000106BCCC00FF1126B050E116F000106EC58
:103E600004F019BEF28ED2510124D56F000E02204B
:103E7000D66FD6C003F0D551D6C0F7FF37EC01F0AE
:103E8000D46FD36BD3510708D8A08BD0D4A140D026
:103E9000D12D1AD0D251C825D76F000EC921D86FA5
:103EA000D351CA25D96F000ECB21DA6FD8C0DCF010
:103EB000D7C0DBF0DE6FD9C0DDF0CEC0E0F0CDC002
:103EC000DFF089EC0FF023D0D251D103F350C82595
:103ED000D76F000EC921D86FD351D103F350CA2533
:103EE000D96F000ECB21DA6FD8C0DCF0D7C0DBF081
:103EF000DE6FD9C0DDF0E06BD1C0DFF0E26BD1C086
:103F0000E1F0CEC0E4F0CDC0E3F02EEC11F045D0EE
:103F1000CD51CF5D03E1CE51D05D3FE0D12D1AD020
:103F2000D251C825D76F000EC921D86FD351CA25E9
:103F3000D96F000ECB21DA6FD8C0DCF0D7C0DBF030
:103F4000DE6FD9C0DDF0D0C0E0F0CFC0DFF089EC8B
:103F50000FF023D0D251D103F350C825D76F000EF4
:103F6000C921D86FD351D103F350CA25D96F000EA0
:103F7000CB21DA6FD8C0DCF0D7C0DBF0DE6FD9C060
:103F8000DDF0E06BD1C0DFF0E26BD1C0E1F0D0C07A
:103F9000E4F0CFC0E3F02EEC11F0D890D433D32B63
:103FA00071D7D22B47D73B50060DF3503326000E66
:103FB00034223DA019D03B50060DF3502F5C006E0B
:103FC000000E3058036E00C001F00350345C0CE367
:103FD00003E13350015C08E23B50080DF3503526F5
:103FE000000E3622346A336A200EC76FC7510A08A2
:103FF00009E13B50080DF3503526000E3622346A95
:10400000336AF4D0C7510D0802E1F0D0EFD034C0CC
:10401000C9F033C0C8F036C0CBF035C0CAF0C7C055
:10402000CCF038C0CEF037C0CDF03AC0D0F039C0B7
:10403000CFF03BC0D1F0D26BD2510508D8A0B5D09B
:10404000D251050802E1D46B1ED0196AF2BE198E56
:10405000F29E0101106BCCC00FF1126B050E116FB7
:10406000000106EC04F019BEF28ED2510124D56F86
:10407000000E0220D66FD6C003F0D551D6C0F7FF90
:1040800037EC01F0D46FD36BD3510708D8A08BD095
:10409000D4A140D0D12D1AD0D251C825D76F000E4F
:1040A000C921D86FD351CA25D96F000ECB21DA6F41
:1040B000D8C0DCF0D7C0DBF0DE6FD9C0DDF0CEC0F9
:1040C000E0F0CDC0DFF089EC0FF023D0D251D10366
:1040D000F350C825D76F000EC921D86FD351D10333
:1040E000F350CA25D96F000ECB21DA6FD8C0DCF0AF
:1040F000D7C0DBF0DE6FD9C0DDF0E06BD1C0DFF000
:10410000E26BD1C0E1F0CEC0E4F0CDC0E3F02EEC24
:1041100011F045D0CD51CF5D03E1CE51D05D3FE0F0
:10412000D12D1AD0D251C825D76F000EC921D86F12
:10413000D351CA25D96F000ECB21DA6FD8C0DCF07D
:10414000D7C0DBF0DE6FD9C0DDF0D0C0E0F0CFC06B
:10415000DFF089EC0FF023D0D251D103F350C82502
:10416000D76F000EC921D86FD351D103F350CA25A0
:10417000D96F000ECB21DA6FD8C0DCF0D7C0DBF0EE
:10418000DE6FD9C0DDF0E06BD1C0DFF0E26BD1C0F3
:10419000E1F0D0C0E4F0CFC0E3F02EEC11F0D89005
:1041A000D433D32B71D7D22B47D73B50060DF350C6
:1041B0003326000E34223DA019D03B50060DF3509B
:1041C0002F5C006E000E3058036E00C001F00350EB
:1041D000345C0CE303E13350015C08E23B50080D12
:1041E000F3503526000E3622346A336A02D0010EAF
:1041F0002A6EC0C0E9FFC1C0EAFFEF50EF08D8A4A3
:1042000021D1010EC025E96E000EC121EA6EEFCF6B
:10421000C2F0C02BD8B4C12BC02BD8B4C12BC25113
:10422000C207000AD8B40ED1C151036EC051C02BD1
:10423000D8B4C12BE96E03C0EAFFEFCFC4F0C4C00D
:10424000C7F0C7510A0809E13B50080DF350352665
:10425000000E3622346A336AF4D0C7510D0802E1E9
:10426000F0D0EFD034C0C9F033C0C8F036C0CBF0C6
:1042700035C0CAF0C7C0CCF038C0CEF037C0CDF0E2
:104280003AC0D0F039C0CFF03BC0D1F0D26BD251A0
:104290000508D8A0B5D0D251050802E1D46B1ED0D4
:1042A000196AF2BE198EF29E0101106BCCC00FF19B
:1042B000126B050E116F000106EC04F019BEF28EB0
:1042C000D2510124D56F000E0220D66FD6C003F064
:1042D000D551D6C0F7FF37EC01F0D46FD36BD35173
:1042E0000708D8A08BD0D4A140D0D12D1AD0D2515C
:1042F000C825D76F000EC921D86FD351CA25D96FF1
:10430000000ECB21DA6FD8C0DCF0D7C0DBF0DE6F57
:10431000D9C0DDF0CEC0E0F0CDC0DFF089EC0FF009
:1043200023D0D251D103F350C825D76F000EC92135
:10433000D86FD351D103F350CA25D96F000ECB21CA
:10434000DA6FD8C0DCF0D7C0DBF0DE6FD9C0DDF0AB
:10435000E06BD1C0DFF0E26BD1C0E1F0CEC0E4F0A1
:10436000CDC0E3F02EEC11F045D0CD51CF5D03E18F
:10437000CE51D05D3FE0D12D1AD0D251C825D76F94
:10438000000EC921D86FD351CA25D96F000ECB2199
:10439000DA6FD8C0DCF0D7C0DBF0DE6FD9C0DDF05B
:1043A000D0C0E0F0CFC0DFF089EC0FF023D0D251C5
:1043B000D103F350C825D76F000EC921D86FD35150
:1043C000D103F350CA25D96F000ECB21DA6FD8C0C4
:1043D000DCF0D7C0DBF0DE6FD9C0DDF0E06BD1C020
:1043E000DFF0E26BD1C0E1F0D0C0E4F0CFC0E3F089
:1043F0002EEC11F0D890D433D32B71D7D22B47D7D2
:104400003B50060DF3503326000E34223DA019D048
:104410003B50060DF3502F5C006E000E3058036EBB
:1044200000C001F00350345C0CE303E13350015C45
:1044300008E23B50080DF3503526000E3622346A50
:10444000336AEDD6C0C0E9FFC1C0EAFFEF50EE0805
:1044500035E1010EC025E96E000EC121EA6EEFCFF5
:10446000C3F0C02BD8B4C12BC02BD8B4C12BC353BD
:1044700025E0C151036EC051C02BD8B4C12BE96EE9
:1044800003C0EAFFEFCFC4F0C4C001F101C18CFF4B
:1044900081948184C307C151036EC051C02BD8B42D
:1044A000C12BE96E03C0EAFFEFCFC4F0C4C001F135
:1044B00001C18CFF81948184C307D9D78A8AC8EF50
:0444C0001CF00300E9
:105A800000000000000000066000000000000000B0
:105A90000000000000000000000000000000000006
:105AA00000000000000000000000000000000006F0
:105AB0006000000000000000000000000000000086
:105AC00000000000000000000000000000000000D6
:105AD0000000000000000006600000000000000060
:105AE00000000000000000000000000000000000B6
:105AF00000000000000000000000000000000006A0
:105B00006000000000000000000000000000000035
:105B10000000000000000000000000000000000085
:105B200000000000000000067FFFFFFFFFFFFFFFF7
:105B3000FFFFFFFFFFFFFFFFFFFFFFFFFFFFFFFF75
:105B4000FFFFFFFFFFFFFFFFFFFFFFFFFFFFFFFE66
:105B50007FFFFFFFFFFFFFFFFFFFFFFFFFFFFFFFD5
:105B6000FFFFFFFFFFFFFFFFFFFFFFFFFFFFFFFF45
:105B7000FFFFFFFFFFFFFFFE7FFFFFFFFFFFFFFFB6
:105B8000FFFFFFFFFFFFFFFFFFFFFFFFFFFFFFFF25
:105B9000FFFFFFFFFFFFFFFFFFFFFFFFFFFFFFFE16
:105BA0007FFFFFFFFFFFFFFFFFFFFFFFFFFFFFFF85
:105BB000FFFFFFFFFFFFFFFFFFFFFFFFFFFFFFFFF5
:105BC000FFFFFFFFFFFFFFFE7FFFFFFFFFFFFFFF66
:105BD000FFFFFFFFFFFFFFFFFFFFFFFFFFFFFFFFD5
:105BE000FFFFFFFFFFFFFFFFFFFFFFFFFFFFFFFEC6
:105BF0007FFFFFFFFFFFFFFFFFFFFFFFFFFFFFFF35
:105C0000FFFFFFFFFFFFFFFFFFFFFFFFFFFFFFFFA4
:105C1000FFFFFFFFFFFFFFFE7FFFFFFFFFFFFFFF15
:105C2000FFFFFFFFFFFFFFFFFFFFFFFFFFFFFFFF84
:105C3000FFFFFFFFFFFFFFFFFFFFFFFFFFFFFFFE75
:105C40007FFFFFFFFFFFFFFFFFFFFFFFFFFFFFFFE4
:105C5000FFFFFFFFFFFFFFFFFFFFFFFFFFFFFFFF54
:105C6000FFFFFFFFFFFFFFFE7FFFFFFFFFFFFFFFC5
:105C7000FFFFFFFFFFFFFFFFFFFFFFFFFFFFFFFF34
:105C8000FFFFFFFFFFFFFFFFFFFFFFFFFFFFFFFE25
:105C90007FFFFFFFFFFFFFFFFFFFFFFFFFFFFFFC97
:105CA00000000000000000000000000000000000F4
:105CB00000000000000000007FFFFFFFFFFFFFFF6C
:105CC000FFFFFFFFFFFFFFF80000000000000000E3
:105CD00000000000000000000000000000000000C4
:105CE0007FFFFFFFFFFFFFFFFFFFFFFFFFFFFFF84B
:105CF00000000000000000000000000000000000A4
:105D000000000000000000007FFFFFFFFFFFFFFF1B
:105D1000FFFFFFFFFFFFFFF8000000000000000092
:105D20000000000000000000000000000000000073
:105D3000000000000000000000000000000000184B
:105D40000000000000000000000000000000000053
:105D50000000000000000000000000000000000043
:105D6000000000000000001800000000000000001B
:105D70000000000000000000000000000000000023
:105D800000000000000000000000000000000018FB
:105D90000000000000000000000000000000000003
:105DA00000000000000000000000000000000000F3
:105DB00000000000000000180000000000000000CB
:105DC00000000000000000000000000000000000D3
:105DD00000000000000000000000000000000018AB
:105DE00000000000000000000000000000000000B3
:105DF00000000000000000000000000000000000A3
:105E0000000000000000001800000000000000007A
:105E10000000000000000000000000000000000082
:105E2000000000000000000000000000000000185A
:105E30000000000000080000000000000020000832
:105E40000000000000400000000000000000000012
:105E5000000000000000001803E0000010080078B7
:105E6000F043C08640200008380780000040000052
:105E7000000000000000000000000000000000180A
:105E8000062000000008208C99C060CE0020000889
:105E90000804400000400000000000000000000076
:105EA00000000000000000180C071C89D3CE780CFD
:105EB000884040CA4F38E3C808044E24E3CF3BC0B3
:105EC00000000000000000000000000000000018BA
:105ED0000C049249164920098841C0AA4824144854
:105EE0000804492496512200000000000000000030
:105EF00000000000000000180C08925114492030E6
:105F0000884060B25824F7C808079124945F238022
:105F10000000000000000000000000000000001869
:105F20000624927114492040984460B24824940891
:105F30001904092C945020400000000000000000CB
:105F4000000000000000001803E71C2113C938FC02
:105F5000F1E3C0824F24F3C871040E3C93CF278035
:105F60000000000000000000000000000000001819
:105F700000001020004000000000000000000000B1
:105F80000000000000000000000000000000000011
:105F90000000000000000018000010400380000016
:105FA00000000000000000000000000000000000F1
:105FB00000000000000000000000000000000018C9
:105FC00000000000000000000000000000000000D1
:105FD00000000000000000000000000000000000C1
:105FE0000000000000000018000000000000000099
:105FF00000000000000000000000000000000000A1
:1060000007C07FFFFFFFFFFFFFFFF9E00000000078
:106010000000000000000000000000000000000080
:1060200000000000000F000007C03FFFFFFFFFFF60
:10603000FFFFF9E000000000000000000000000089
:10604000000000000000000000000000000F000041
:1060500007C01FFFFFFFFFFFFFFFE1E000000000A0
:106060000000000000000000000000000000000030
:1060700000000000000F000007C00000000000004A
:106080000FC001E0000000007FFFFFFFFFFFFFFFE8
:10609000FFFC00000000000000000000000F0000F6
:1060A00007FFE000000000001F8001E0000000008A
:1060B0007FFFFFFFFFFFFFFFFFFE0000000000006B
:1060C00000000000000F000003FFE00000000000DF
:1060D0001F0001E0000000007FFFFFFFFFFFFFFF48
:1060E000FFFF00000000000000000000000F0000A3
:1060F00001FFFFFFFFFFFFFFFE0001E000000000C7
:106100007FFFFFFFFFFFFFFFFFFF80000000000099
:1061100000000000000F000000FFFFFFFFFFFFFF77
:10612000FE0001E0000000007FFF80000000000092
:10613000007FC0000000000000000000000F000011
:106140000000FFFFFFFFFFFFFE0001E00000000076
:106150007FFF800000000000007FE00000000000E2
:1061600000000000000F000000007FFFFFFFFFFFA6
:10617000FC0001E0000000006000000000000000E2
:10618000003FF0000000000000000000000F0000D1
:1061900000003FFFFFFFFFFFFC0001E000000000E8
:1061A0006000000000000000003FF8000000000058
:1061B00000000000000F000000001FFFFFFFFFFFB6
:1061C000F80001E000000000600000000000000096
:1061D000003FFC000000000000000000000F000075
:1061E0000000000000000000000001E000000000CE
:1061F0006000000000000000003FFE000000000002
:1062000000000000000FFFFFFFFFFFFFFFFFFFFF89
:10621000FFFFFFE00000000061DC000080001C03C5
:10622000003FFF000000000000000000000FFFFF23
:10623000FFFFFFFFFFFFFFFFFFFFFFE00000000089
:106240006088000080000804003FFF80000000001C
:1062500000000000000FFFFFFFFFFFFFFFFFFFFF39
:10626000FFFFFFE00000000060880000000008045D
:10627000003FFFC00000000000000000000FFFFF13
:10628000FFFFFFFFFFFFFFFFFFFFFFE00000000039
:106290006088ED9F8EB00ACF383FFFE0000000001D
:1062A000000000000007FFFFFFFFFFFFFFFFFFFFF1
:1062B000FFFFFFC000000000605116A291480924B2
:1062C000443FFFF000000000000000000007FFFF57
:1062D000FFFFFFFFFFFFFFFFFFFFFFC00000000009
:1062E0006051F41891480924443FFFF80000000071
:1062F000000000000000000000000000000000009E
:1063000000000000000000006051040491480924CE
:10631000443FFFFC000000000000000000000000FF
:10632000000000000000000000000000000000006D
:106330006021142291480924443FFFFE0000000020
:10634000000000000000000000000000000000004D
:1063500000000000000000006020EE3DCEFC1FFEAB
:10636000383FFFFF000000000000000000000000B8
:10637000000000000000000000000000000000001D
:106380006000000000000000003FFFFF80000000F0
:1063900000000000000000000000000000000000FD
:1063A000000000000000000060000000000000008D
:1063B000003FFFFFC00000000000000000000000E0
:1063C00000000000000000000000000000000000CD
:1063D0006000000000000000003FFFFFE000000040
:1063E00000000000000000000000000000000000AD
:1063F000000000000000000070000000000000002D
:10640000007FFFFFF000000000000000000000001F
:10641000000000000000000000000000000000007C
:106420007000000000000000007FFFFFF800000087
:10643000000000000000000000000000000000005C
:1064400000000000000000007FFFFFFFFFFFFFFFD4
:10645000FFFFFFFFFFFFFFFFFFFFFFFFFFFFFFFF4C
:10646000FFFFFFFFFFFFFFFFFFFFFFFFFFFFFFFE3D
:106470007FFFFFFFFFFFFFFFFFFFFFFFFFFFFFFFAC
:10648000FFFFFFFFFFFFFFFFFFFFFFFFFFFFFFFF1C
:10649000FFFFFFFFFFFFFFFE7FFFFFFFFFFFFFFF8D
:1064A000FFFFFFFFFFFFFFFFFFFFFFFFFFFFFFFFFC
:1064B000FFFFFFFFFFFFFFFFFFFFFFFFFFFFFFFEED
:1064C0007FFFFFFFFFFFFFFFFFFFFFFFFFFFFFFF5C
:1064D000FFFFFFFFFFFFFFFFFFFFFFFFFFFFFFFFCC
:1064E000FFFFFFFFFFFFFFFE7FFFFFFFFFFFFFFF3D
:1064F000FFFFFFFFFFFFFFFFFFFFFFFFFFFFFFFFAC
:10650000FFFFFFFFFFFFFFFFFFFFFFFFFFFFFFFE9C
:106510007FFFFFFFFFFFFFFFFFFFFFFFFFFFFFFF0B
:10652000FFFFFFFFFFFFFFFFFFFFFFFFFFFFFFFF7B
:10653000FFFFFFFFFFFFFFFE7FFFFFFFFFFFFFFFEC
:10654000FFFFFFFFFFFFFFFFFFFFFFFFFFFFFFFF5B
:10655000FFFFFFFFFFFFFFFFFFFFFFFFFFFFFFFE4C
:106560007FFFFFFFFFFFFFFFFFFFFFFFFFFFFFFFBB
:10657000FFFFFFFFFFFFFFFFFFFFFFFFFFFFFFFF2B
:10658000FFFFFFFFFFFFFFFE7FFFFFFFFFFFFFFF9C
:10659000FFFFFFFFFFFFFFFFFFFFFFFFFFFFFFFF0B
:1065A000FFFFFFFFFFFFFFFFFFFFFFFFFFFFFFFEFC
:1065B0007FFFFFFFFFFFFFFFFFFFFFFFFFFFFFFF6B
:1065C000FFFFFFFFFFFFFFFFFFFFFFFFFFFFFFFFDB
:1065D000FFFFFFFFFFFFFFFE600000000000000064
:1065E00000000000000000000000000000000000AB
:1065F0000000000000000000000000000000000695
:10660000600000000000000000000000000000002A
:10661000000000000000000000000000000000007A
:106620000000000000000006600000000000000004
:10663000000000000000000000000000000000005A
:106640000000000000000000000000000000000644
:1066500060000000000000000000000000000000DA
:10666000000000000000000000000000000000002A
:1066700000000000000000066000000000000000B4
:10668000000000000000000000000000000000000A
:1066900000000000000000000000000000000006F4
:1066A000600000000000000000000000000000008A
:1066B00000000000000000000000000000000000DA
:1066C0000000000000000006600000000000000064
:1066D00000000000000000000000000000000000BA
:1066E00000000000000000000000000000000006A4
:1066F000600000000000000000000000000000003A
:106700000000000000000000000000000000000089
:106710000000000000000006600000000000000013
:106720000000000000000000000000000000000069
:106730000000000000000000000000000000000653
:1067400060000000000000000000000000000000E9
:106750000000000000000000000000000000000039
:1067600000000000000000066000000000000000C3
:106770000000000000000000000000000000000019
:106780000000000000000000000000000000000603
:106790006000000000000000000000000000000099
:1067A00000000000000000000000000000000000E9
:1067B0000000000000000006600000000000000073
:1067C00000000000000000000000000000000000C9
:1067D00000000000000000000000000000000006B3
:1067E0006000000000000000000000000000000049
:1067F0000000000000000000000000000000000099
:1068000000000000000F3800000000000071B3E835
:10681000000F01E000000000000000000000000088
:10682000000000000000000000000000000F380021
:10683000000000000071BA48000F01E000000000F5
:106840000000000000000000000000000000000048
:1068500000000000000F3800000000000071B808C0
:10686000000F01E000000000000000000000000038
:10687000000000000000000000000000000F3800D1
:10688000000000000071B988000F01E00000000066
:1068900000000000000000000000000000000000F8
:1068A00000000000000F3800000000000071B3C8B5
:1068B000000F01E0000000000000000000000000E8
:1068C000000000000000000000000000000F380081
:1068D00000000000007183E8000F01E000000000EC
:1068E00000000000000000000000000000000000A8
:1068F00000000000000F380000000000007183C895
:10690000000F01E000000000000000000000000097
:10691000000000000000000000000000000F380030
:1069200000000000007181C8001F01E000000000AD
:106930000000000000000000000000000000000057
:1069400000000000000F3800000000000071818886
:10695000003F01E000000000000000000000000017
:10696000000000000000000000000000000F3800E0
:106970000000000000718008007F01E000000000BE
:106980000000000000000000000000000000000007
:1069900000000000000F3800000000000071FFF848
:1069A000007F01E000000000000000000000000087
:1069B000000000000000000000000000000F380090
:1069C000000000000071FFF8007E01E00000000000
:1069D00000000000000000000000000000000000B7
:1069E00000000000000F3800000000000070FFF001
:1069F000007C01E00000000000000000000000003A
:106A0000000000000000000000000000000F38003F
:106A10000000000000706000007801E0000000004D
:106A20000000000000000000000000000000000066
:106A300000000000000F380000000000007FFFFF92
:106A4000FFF801E00000000000000000000000006E
:106A5000000000000000000000000000000F3800EF
:106A600000000000007FFFFFFFF801E000000000D1
:106A70000000000000000000000000000000000016
:106A800000000000000F380000000000007FFFFF42
:106A9000FFFFC1E000000000000000000000000057
:106AA000000000000000000000000000000F38009F
:106AB00000000000007FFFFFFFFFC1E000000000BA
:106AC00000000000000000000000000000000000C6
:106AD00000000000000F3800000000000071C0003E
:106AE000007FC1E000000000000000000000000086
:106AF000000000000000000000000000000F38004F
:106B0000000000000071C000007FC1E00000000034
:106B10000000000000000000000000000000000075
:106B200000000000000F380000000000007180002D
:106B3000007DC1E000000000000000000000000037
:106B4000000000000000000000000000000F3800FE
:106B500000000000007180000078C1E0000000002B
:106B60000000000000000000000000000000000025
:106B700000000000000F38000000000000718000DD
:106B80000078C1E0000000000000000000000000EC
:106B9000000000000000000000000000000F3800AE
:106BA00000000000007FFFFFFFFFF1E00000000099
:106BB00000000000000000000000000000000000D5
:106BC00000000000000F380000000000007FFFFF01
:106BD000FFFFF9E0000000000000000000000000DE
:106BE000000000000000000000000000000F38005E
:106BF00000000000007FFFFFFFFFF9E00000000041
:106C00000000000000000000000000000000000084
:106C100000000000000F380000000000007380003A
:106C20000078D9E000000000000000000000000033
:106C3000000000000000000000000000000F3FFF07
:106C4000FFFFFFFFFFF300000078D9E00000000025
:106C50000000000000000000000000000000000034
:106C600000000000000F3FFFFFFFFFFFFFF30000E9
:106C70000078D9E0000000000000000000000000E3
:106C8000000000000000000000000000000F3FFFB7
:106C9000FFFFFFFFFFF30000000019E0000000000D
:106CA00000000000000000000000000000000000E4
:106CB00000000000000F3FFFFFFFFFFFFFF3000099
:106CC000000019E0000000000000000000000000CB
:106CD000000000000000000000000000000F38006D
:106CE0000000000000330007FFFFD9E000000000B3
:106CF0000000000000000000000000000000000094
:106D000000000000000F3800000000000033000702
:106D1000FFFFD9E0000000000000000000000000BC
:106D2000000000000000000000000000000F3FFF16
:106D3000FFFFFFFFFFF300078C63D9E000000000B6
:106D40000000000000000000000000000000000043
:106D500000000000000F3FFFFFFFFFFFFFF30007F1
:106D60008C63D9E00000000000000000000000007B
:106D7000000000000000000000000000000F3FFFC6
:106D8000FFFFFFFFFFF70007A6EFD9E000000000BC
:106D900000000000000000000000000000000000F3
:106DA00000000000000F1FFFFFFFFFFFFFE60007CE
:106DB000A6EFD9E000000000000000000000000085
:106DC000000000000000000000000000000F0000B4
:106DD00000000000000400078EEFD9E00000000072
:106DE00000000000000000000000000000000000A3
:106DF00000000000000F000000003FFFFEFC000745
:106E0000BEEFD9E00000000000000000000000001C
:106E1000000000000000000000000000000F000063
:106E200000007FFFFEFC0007BEEFD9E0000000007D
:106E30000000000000000000000000000000000052
:106E400000000000000F000000007FFFFE000007B0
:106E5000BC63D9E00000000000000000000000005A
:106E6000000000000000000000000000000F000013
:106E7000007C7FFC00000007BC63D9E0000000003C
:106E80000000000000000000000000000000000002
:106E900000000000000F000000FE3FF800000007A7
:106EA000FFFFD9E00000000000000000000000002B
:106EB000000000000000000000000000000F0000C3
:106EC00001FFFFF000000007FFFFD9E00000000015
:106ED00000000000000000000000000000000000B2
:106EE00000000000000F000003FFFFE000000000B2
:106EF000000019E000000000000000000000000099
:106F0000000000000000000000000000000F000072
:106F100007FFFFC000000000000019E000000000B3
:106F20000000000000000000000000000000000061
:106F300000000000000F000007F7FF8000000000C5
:106F40000FC019E000000000000000000000000079
:106F5000000000000000000000000000000F000022
:106F600007E3FF00000000000FC019E00000000070
:106F70000000000000000000000000000000000011
:106F800000000000000F00000783FE00000000006A
:106F90000FC019E000000000000000000000000029
:106FA000000000000000000000000000000F0000D2
:106FB0000781FC00000000000FC019E00000000085
:106FC00000000000000000000000000000000000C1
:106FD00000000000000F00000780E000000000003B
:106FE0000FC019E0000000000000000000000000D9
:106FF000000000000000000000000000000F000082
:107000000000000000000000000000000000000080
:1070100000000000000000000003C7800000000026
:107020000000000078078000000000000000000061
:107030000000000000000000000000000000000050
:107040000003C780000000000000000078078000F7
:107050000000000000000000000000000000000030
:1070600000000000000000000003C78000000000D6
:107070000000000078078000000000000000000011
:107080000000000000000000000000000000000000
:107090000003C7800000000000000000780000002E
